{
  "contractName": "Dex",
  "abi": [
    {
      "anonymous": false,
      "inputs": [
        {
          "indexed": true,
          "internalType": "address",
          "name": "previousOwner",
          "type": "address"
        },
        {
          "indexed": true,
          "internalType": "address",
          "name": "newOwner",
          "type": "address"
        }
      ],
      "name": "OwnershipTransferred",
      "type": "event"
    },
    {
      "inputs": [
        {
          "internalType": "bytes32",
          "name": "ticker",
          "type": "bytes32"
        },
        {
          "internalType": "address",
          "name": "tokenAddress",
          "type": "address"
        }
      ],
      "name": "addToken",
      "outputs": [],
      "stateMutability": "nonpayable",
      "type": "function"
    },
    {
      "inputs": [
        {
          "internalType": "address",
          "name": "",
          "type": "address"
        },
        {
          "internalType": "bytes32",
          "name": "",
          "type": "bytes32"
        }
      ],
      "name": "balances",
      "outputs": [
        {
          "internalType": "uint256",
          "name": "",
          "type": "uint256"
        }
      ],
      "stateMutability": "view",
      "type": "function"
    },
    {
      "inputs": [
        {
          "internalType": "uint256",
          "name": "amount",
          "type": "uint256"
        },
        {
          "internalType": "bytes32",
          "name": "ticker",
          "type": "bytes32"
        }
      ],
      "name": "deposit",
      "outputs": [],
      "stateMutability": "nonpayable",
      "type": "function"
    },
    {
      "inputs": [],
      "name": "depositEth",
      "outputs": [],
      "stateMutability": "payable",
      "type": "function"
    },
    {
      "inputs": [],
      "name": "nextOrderId",
      "outputs": [
        {
          "internalType": "uint256",
          "name": "",
          "type": "uint256"
        }
      ],
      "stateMutability": "view",
      "type": "function"
    },
    {
      "inputs": [
        {
          "internalType": "bytes32",
          "name": "",
          "type": "bytes32"
        },
        {
          "internalType": "uint256",
          "name": "",
          "type": "uint256"
        },
        {
          "internalType": "uint256",
          "name": "",
          "type": "uint256"
        }
      ],
      "name": "orderBook",
      "outputs": [
        {
          "internalType": "uint256",
          "name": "id",
          "type": "uint256"
        },
        {
          "internalType": "address",
          "name": "trader",
          "type": "address"
        },
        {
          "internalType": "enum Dex.Side",
          "name": "side",
          "type": "uint8"
        },
        {
          "internalType": "bytes32",
          "name": "ticker",
          "type": "bytes32"
        },
        {
          "internalType": "uint256",
          "name": "amount",
          "type": "uint256"
        },
        {
          "internalType": "uint256",
          "name": "price",
          "type": "uint256"
        }
      ],
      "stateMutability": "view",
      "type": "function"
    },
    {
      "inputs": [],
      "name": "owner",
      "outputs": [
        {
          "internalType": "address",
          "name": "",
          "type": "address"
        }
      ],
      "stateMutability": "view",
      "type": "function"
    },
    {
      "inputs": [],
      "name": "renounceOwnership",
      "outputs": [],
      "stateMutability": "nonpayable",
      "type": "function"
    },
    {
      "inputs": [
        {
          "internalType": "uint256",
          "name": "",
          "type": "uint256"
        }
      ],
      "name": "tokenList",
      "outputs": [
        {
          "internalType": "bytes32",
          "name": "",
          "type": "bytes32"
        }
      ],
      "stateMutability": "view",
      "type": "function"
    },
    {
      "inputs": [
        {
          "internalType": "bytes32",
          "name": "",
          "type": "bytes32"
        }
      ],
      "name": "tokenMapping",
      "outputs": [
        {
          "internalType": "bytes32",
          "name": "ticker",
          "type": "bytes32"
        },
        {
          "internalType": "address",
          "name": "tokenAddress",
          "type": "address"
        }
      ],
      "stateMutability": "view",
      "type": "function"
    },
    {
      "inputs": [
        {
          "internalType": "address",
          "name": "newOwner",
          "type": "address"
        }
      ],
      "name": "transferOwnership",
      "outputs": [],
      "stateMutability": "nonpayable",
      "type": "function"
    },
    {
      "inputs": [
        {
          "internalType": "uint256",
          "name": "amount",
          "type": "uint256"
        },
        {
          "internalType": "bytes32",
          "name": "ticker",
          "type": "bytes32"
        }
      ],
      "name": "withdraw",
      "outputs": [],
      "stateMutability": "nonpayable",
      "type": "function"
    },
    {
      "inputs": [
        {
          "internalType": "uint256",
          "name": "amount",
          "type": "uint256"
        }
      ],
      "name": "withdrawEth",
      "outputs": [],
      "stateMutability": "nonpayable",
      "type": "function"
    },
    {
      "inputs": [
        {
          "internalType": "bytes32",
          "name": "ticker",
          "type": "bytes32"
        },
        {
          "internalType": "enum Dex.Side",
          "name": "side",
          "type": "uint8"
        }
      ],
      "name": "getOrderBook",
      "outputs": [
        {
          "components": [
            {
              "internalType": "uint256",
              "name": "id",
              "type": "uint256"
            },
            {
              "internalType": "address",
              "name": "trader",
              "type": "address"
            },
            {
              "internalType": "enum Dex.Side",
              "name": "side",
              "type": "uint8"
            },
            {
              "internalType": "bytes32",
              "name": "ticker",
              "type": "bytes32"
            },
            {
              "internalType": "uint256",
              "name": "amount",
              "type": "uint256"
            },
            {
              "internalType": "uint256",
              "name": "price",
              "type": "uint256"
            }
          ],
          "internalType": "struct Dex.Order[]",
          "name": "",
          "type": "tuple[]"
        }
      ],
      "stateMutability": "view",
      "type": "function"
    },
    {
      "inputs": [
        {
          "internalType": "enum Dex.Side",
          "name": "side",
          "type": "uint8"
        },
        {
          "internalType": "bytes32",
          "name": "ticker",
          "type": "bytes32"
        },
        {
          "internalType": "uint256",
          "name": "amount",
          "type": "uint256"
        },
        {
          "internalType": "uint256",
          "name": "price",
          "type": "uint256"
        }
      ],
      "name": "createLimitOrder",
      "outputs": [],
      "stateMutability": "nonpayable",
      "type": "function"
    }
  ],
  "bytecode": "0x608060405260006004553480156200001657600080fd5b50620000376200002b6200003d60201b60201c565b6200004560201b60201c565b62000109565b600033905090565b60008060009054906101000a900473ffffffffffffffffffffffffffffffffffffffff169050816000806101000a81548173ffffffffffffffffffffffffffffffffffffffff021916908373ffffffffffffffffffffffffffffffffffffffff1602179055508173ffffffffffffffffffffffffffffffffffffffff168173ffffffffffffffffffffffffffffffffffffffff167f8be0079c531659141344cd1fd0a4f28419497f9722a3daafe3b4186f6b6457e060405160405180910390a35050565b6125f080620001196000396000f3fe6080604052600436106100e85760003560e01c80638da5cb5b1161008a578063ba58ea6811610059578063ba58ea68146102d9578063c311d04914610316578063c9630cb01461033f578063f2fde38b14610368576100e8565b80638da5cb5b1461021f5780639776aacf1461024a5780639ead722214610273578063a8d2021a146102b0576100e8565b8063439370b1116100c6578063439370b114610197578063667cb4ba146101a15780636f3b62f9146101df578063715018a614610208576100e8565b80630bb431b6146100ed5780631f14df691461012f5780632a58b3301461016c575b600080fd5b3480156100f957600080fd5b50610114600480360381019061010f9190611b4a565b610391565b60405161012696959493929190611c73565b60405180910390f35b34801561013b57600080fd5b5061015660048036038101906101519190611d00565b610424565b6040516101639190611d40565b60405180910390f35b34801561017857600080fd5b50610181610449565b60405161018e9190611d40565b60405180910390f35b61019f61044f565b005b3480156101ad57600080fd5b506101c860048036038101906101c39190611d5b565b610548565b6040516101d6929190611d88565b60405180910390f35b3480156101eb57600080fd5b5061020660048036038101906102019190611dd6565b61058c565b005b34801561021457600080fd5b5061021d610f7a565b005b34801561022b57600080fd5b50610234610f8e565b6040516102419190611e3d565b60405180910390f35b34801561025657600080fd5b50610271600480360381019061026c9190611e58565b610fb7565b005b34801561027f57600080fd5b5061029a60048036038101906102959190611e98565b61107e565b6040516102a79190611ec5565b60405180910390f35b3480156102bc57600080fd5b506102d760048036038101906102d29190611ee0565b6110a2565b005b3480156102e557600080fd5b5061030060048036038101906102fb9190611f20565b61134c565b60405161030d91906120c6565b60405180910390f35b34801561032257600080fd5b5061033d60048036038101906103389190611e98565b61149b565b005b34801561034b57600080fd5b5061036660048036038101906103619190611ee0565b6116b1565b005b34801561037457600080fd5b5061038f600480360381019061038a91906120e8565b6118ca565b005b600560205282600052604060002060205281600052604060002081815481106103b957600080fd5b906000526020600020906005020160009250925050508060000154908060010160009054906101000a900473ffffffffffffffffffffffffffffffffffffffff16908060010160149054906101000a900460ff16908060020154908060030154908060040154905086565b6003602052816000526040600020602052806000526040600020600091509150505481565b60045481565b6104d234600360003373ffffffffffffffffffffffffffffffffffffffff1673ffffffffffffffffffffffffffffffffffffffff16815260200190815260200160002060007f455448000000000000000000000000000000000000000000000000000000000081526020019081526020016000205461194d90919063ffffffff16565b600360003373ffffffffffffffffffffffffffffffffffffffff1673ffffffffffffffffffffffffffffffffffffffff16815260200190815260200160002060007f4554480000000000000000000000000000000000000000000000000000000000815260200190815260200160002081905550565b60016020528060005260406000206000915090508060000154908060010160009054906101000a900473ffffffffffffffffffffffffffffffffffffffff16905082565b600060018111156105a05761059f611bed565b5b8460018111156105b3576105b2611bed565b5b0361064c576105cb818361196390919063ffffffff16565b600360003373ffffffffffffffffffffffffffffffffffffffff1673ffffffffffffffffffffffffffffffffffffffff16815260200190815260200160002060007f4554480000000000000000000000000000000000000000000000000000000000815260200190815260200160002054101561064757600080fd5b6106d6565b60018081111561065f5761065e611bed565b5b84600181111561067257610671611bed565b5b036106d55781600360003373ffffffffffffffffffffffffffffffffffffffff1673ffffffffffffffffffffffffffffffffffffffff16815260200190815260200160002060008581526020019081526020016000205410156106d457600080fd5b5b5b6000600560008581526020019081526020016000206000866001811115610700576106ff611bed565b5b81526020019081526020016000209050806040518060c0016040528060045481526020013373ffffffffffffffffffffffffffffffffffffffff16815260200187600181111561075357610752611bed565b5b81526020018681526020018581526020018481525090806001815401808255809150506001900390600052602060002090600502016000909190919091506000820151816000015560208201518160010160006101000a81548173ffffffffffffffffffffffffffffffffffffffff021916908373ffffffffffffffffffffffffffffffffffffffff16021790555060408201518160010160146101000a81548160ff0219169083600181111561080d5761080c611bed565b5b0217905550606082015181600201556080820151816003015560a082015181600401555050600080828054905011610846576000610858565b600182805490506108579190612144565b5b90506000600181111561086e5761086d611bed565b5b86600181111561088157610880611bed565b5b03610bdc575b6000811115610bd7578181815481106108a3576108a2612178565b5b906000526020600020906005020160040154826001836108c39190612144565b815481106108d4576108d3612178565b5b90600052602060002090600502016004015411610bd7576000826001836108fb9190612144565b8154811061090c5761090b612178565b5b90600052602060002090600502016040518060c0016040529081600082015481526020016001820160009054906101000a900473ffffffffffffffffffffffffffffffffffffffff1673ffffffffffffffffffffffffffffffffffffffff1673ffffffffffffffffffffffffffffffffffffffff1681526020016001820160149054906101000a900460ff1660018111156109aa576109a9611bed565b5b60018111156109bc576109bb611bed565b5b815260200160028201548152602001600382015481526020016004820154815250509050826001815481106109f4576109f3612178565b5b906000526020600020906005020183600184610a109190612144565b81548110610a2157610a20612178565b5b9060005260206000209060050201600082015481600001556001820160009054906101000a900473ffffffffffffffffffffffffffffffffffffffff168160010160006101000a81548173ffffffffffffffffffffffffffffffffffffffff021916908373ffffffffffffffffffffffffffffffffffffffff1602179055506001820160149054906101000a900460ff168160010160146101000a81548160ff02191690836001811115610ad857610ad7611bed565b5b02179055506002820154816002015560038201548160030155600482015481600401559050508083600181548110610b1357610b12612178565b5b90600052602060002090600502016000820151816000015560208201518160010160006101000a81548173ffffffffffffffffffffffffffffffffffffffff021916908373ffffffffffffffffffffffffffffffffffffffff16021790555060408201518160010160146101000a81548160ff02191690836001811115610b9d57610b9c611bed565b5b0217905550606082015181600201556080820151816003015560a082015181600401559050508180610bce906121a7565b92505050610887565b610f5a565b600180811115610bef57610bee611bed565b5b866001811115610c0257610c01611bed565b5b03610f59575b6000811115610f5857818181548110610c2457610c23612178565b5b90600052602060002090600502016004015482600183610c449190612144565b81548110610c5557610c54612178565b5b90600052602060002090600502016004015410610f5857600082600183610c7c9190612144565b81548110610c8d57610c8c612178565b5b90600052602060002090600502016040518060c0016040529081600082015481526020016001820160009054906101000a900473ffffffffffffffffffffffffffffffffffffffff1673ffffffffffffffffffffffffffffffffffffffff1673ffffffffffffffffffffffffffffffffffffffff1681526020016001820160149054906101000a900460ff166001811115610d2b57610d2a611bed565b5b6001811115610d3d57610d3c611bed565b5b81526020016002820154815260200160038201548152602001600482015481525050905082600181548110610d7557610d74612178565b5b906000526020600020906005020183600184610d919190612144565b81548110610da257610da1612178565b5b9060005260206000209060050201600082015481600001556001820160009054906101000a900473ffffffffffffffffffffffffffffffffffffffff168160010160006101000a81548173ffffffffffffffffffffffffffffffffffffffff021916908373ffffffffffffffffffffffffffffffffffffffff1602179055506001820160149054906101000a900460ff168160010160146101000a81548160ff02191690836001811115610e5957610e58611bed565b5b02179055506002820154816002015560038201548160030155600482015481600401559050508083600181548110610e9457610e93612178565b5b90600052602060002090600502016000820151816000015560208201518160010160006101000a81548173ffffffffffffffffffffffffffffffffffffffff021916908373ffffffffffffffffffffffffffffffffffffffff16021790555060408201518160010160146101000a81548160ff02191690836001811115610f1e57610f1d611bed565b5b0217905550606082015181600201556080820151816003015560a082015181600401559050508180610f4f906121a7565b92505050610c08565b5b5b60046000815480929190610f6d906121d0565b9190505550505050505050565b610f82611979565b610f8c60006119f7565b565b60008060009054906101000a900473ffffffffffffffffffffffffffffffffffffffff16905090565b610fbf611979565b60405180604001604052808381526020018273ffffffffffffffffffffffffffffffffffffffff16815250600160008481526020019081526020016000206000820151816000015560208201518160010160006101000a81548173ffffffffffffffffffffffffffffffffffffffff021916908373ffffffffffffffffffffffffffffffffffffffff16021790555090505060028290806001815401808255809150506001900390600052602060002001600090919091909150555050565b6002818154811061108e57600080fd5b906000526020600020016000915090505481565b80600073ffffffffffffffffffffffffffffffffffffffff166001600083815260200190815260200160002060010160009054906101000a900473ffffffffffffffffffffffffffffffffffffffff1673ffffffffffffffffffffffffffffffffffffffff1603611148576040517f08c379a000000000000000000000000000000000000000000000000000000000815260040161113f90612275565b60405180910390fd5b82600360003373ffffffffffffffffffffffffffffffffffffffff1673ffffffffffffffffffffffffffffffffffffffff16815260200190815260200160002060008481526020019081526020016000205410156111db576040517f08c379a00000000000000000000000000000000000000000000000000000000081526004016111d2906122e1565b60405180910390fd5b61123e83600360003373ffffffffffffffffffffffffffffffffffffffff1673ffffffffffffffffffffffffffffffffffffffff168152602001908152602001600020600085815260200190815260200160002054611abb90919063ffffffff16565b600360003373ffffffffffffffffffffffffffffffffffffffff1673ffffffffffffffffffffffffffffffffffffffff1681526020019081526020016000206000848152602001908152602001600020819055506001600083815260200190815260200160002060010160009054906101000a900473ffffffffffffffffffffffffffffffffffffffff1673ffffffffffffffffffffffffffffffffffffffff1663a9059cbb33856040518363ffffffff1660e01b8152600401611303929190612301565b6020604051808303816000875af1158015611322573d6000803e3d6000fd5b505050506040513d601f19601f820116820180604052508101906113469190612362565b50505050565b606060056000848152602001908152602001600020600083600181111561137657611375611bed565b5b8152602001908152602001600020805480602002602001604051908101604052809291908181526020016000905b8282101561148f57838290600052602060002090600502016040518060c0016040529081600082015481526020016001820160009054906101000a900473ffffffffffffffffffffffffffffffffffffffff1673ffffffffffffffffffffffffffffffffffffffff1673ffffffffffffffffffffffffffffffffffffffff1681526020016001820160149054906101000a900460ff16600181111561144c5761144b611bed565b5b600181111561145e5761145d611bed565b5b81526020016002820154815260200160038201548152602001600482015481525050815260200190600101906113a4565b50505050905092915050565b80600360003373ffffffffffffffffffffffffffffffffffffffff1673ffffffffffffffffffffffffffffffffffffffff16815260200190815260200160002060007f4554480000000000000000000000000000000000000000000000000000000000815260200190815260200160002054101561154e576040517f08c379a0000000000000000000000000000000000000000000000000000000008152600401611545906122e1565b60405180910390fd5b6115d181600360003373ffffffffffffffffffffffffffffffffffffffff1673ffffffffffffffffffffffffffffffffffffffff16815260200190815260200160002060007f4554480000000000000000000000000000000000000000000000000000000000815260200190815260200160002054611abb90919063ffffffff16565b600360003373ffffffffffffffffffffffffffffffffffffffff1673ffffffffffffffffffffffffffffffffffffffff16815260200190815260200160002060007f45544800000000000000000000000000000000000000000000000000000000008152602001908152602001600020819055503373ffffffffffffffffffffffffffffffffffffffff1681604051611669906123c0565b60006040518083038185875af1925050503d80600081146116a6576040519150601f19603f3d011682016040523d82523d6000602084013e6116ab565b606091505b50505050565b80600073ffffffffffffffffffffffffffffffffffffffff166001600083815260200190815260200160002060010160009054906101000a900473ffffffffffffffffffffffffffffffffffffffff1673ffffffffffffffffffffffffffffffffffffffff1603611757576040517f08c379a000000000000000000000000000000000000000000000000000000000815260040161174e90612275565b60405180910390fd5b6001600083815260200190815260200160002060010160009054906101000a900473ffffffffffffffffffffffffffffffffffffffff1673ffffffffffffffffffffffffffffffffffffffff166323b872dd3330866040518463ffffffff1660e01b81526004016117ca939291906123d5565b6020604051808303816000875af11580156117e9573d6000803e3d6000fd5b505050506040513d601f19601f8201168201806040525081019061180d9190612362565b5061187183600360003373ffffffffffffffffffffffffffffffffffffffff1673ffffffffffffffffffffffffffffffffffffffff16815260200190815260200160002060008581526020019081526020016000205461194d90919063ffffffff16565b600360003373ffffffffffffffffffffffffffffffffffffffff1673ffffffffffffffffffffffffffffffffffffffff168152602001908152602001600020600084815260200190815260200160002081905550505050565b6118d2611979565b600073ffffffffffffffffffffffffffffffffffffffff168173ffffffffffffffffffffffffffffffffffffffff1603611941576040517f08c379a00000000000000000000000000000000000000000000000000000000081526004016119389061247e565b60405180910390fd5b61194a816119f7565b50565b6000818361195b919061249e565b905092915050565b6000818361197191906124f4565b905092915050565b611981611ad1565b73ffffffffffffffffffffffffffffffffffffffff1661199f610f8e565b73ffffffffffffffffffffffffffffffffffffffff16146119f5576040517f08c379a00000000000000000000000000000000000000000000000000000000081526004016119ec9061259a565b60405180910390fd5b565b60008060009054906101000a900473ffffffffffffffffffffffffffffffffffffffff169050816000806101000a81548173ffffffffffffffffffffffffffffffffffffffff021916908373ffffffffffffffffffffffffffffffffffffffff1602179055508173ffffffffffffffffffffffffffffffffffffffff168173ffffffffffffffffffffffffffffffffffffffff167f8be0079c531659141344cd1fd0a4f28419497f9722a3daafe3b4186f6b6457e060405160405180910390a35050565b60008183611ac99190612144565b905092915050565b600033905090565b600080fd5b6000819050919050565b611af181611ade565b8114611afc57600080fd5b50565b600081359050611b0e81611ae8565b92915050565b6000819050919050565b611b2781611b14565b8114611b3257600080fd5b50565b600081359050611b4481611b1e565b92915050565b600080600060608486031215611b6357611b62611ad9565b5b6000611b7186828701611aff565b9350506020611b8286828701611b35565b9250506040611b9386828701611b35565b9150509250925092565b611ba681611b14565b82525050565b600073ffffffffffffffffffffffffffffffffffffffff82169050919050565b6000611bd782611bac565b9050919050565b611be781611bcc565b82525050565b7f4e487b7100000000000000000000000000000000000000000000000000000000600052602160045260246000fd5b60028110611c2d57611c2c611bed565b5b50565b6000819050611c3e82611c1c565b919050565b6000611c4e82611c30565b9050919050565b611c5e81611c43565b82525050565b611c6d81611ade565b82525050565b600060c082019050611c886000830189611b9d565b611c956020830188611bde565b611ca26040830187611c55565b611caf6060830186611c64565b611cbc6080830185611b9d565b611cc960a0830184611b9d565b979650505050505050565b611cdd81611bcc565b8114611ce857600080fd5b50565b600081359050611cfa81611cd4565b92915050565b60008060408385031215611d1757611d16611ad9565b5b6000611d2585828601611ceb565b9250506020611d3685828601611aff565b9150509250929050565b6000602082019050611d556000830184611b9d565b92915050565b600060208284031215611d7157611d70611ad9565b5b6000611d7f84828501611aff565b91505092915050565b6000604082019050611d9d6000830185611c64565b611daa6020830184611bde565b9392505050565b60028110611dbe57600080fd5b50565b600081359050611dd081611db1565b92915050565b60008060008060808587031215611df057611def611ad9565b5b6000611dfe87828801611dc1565b9450506020611e0f87828801611aff565b9350506040611e2087828801611b35565b9250506060611e3187828801611b35565b91505092959194509250565b6000602082019050611e526000830184611bde565b92915050565b60008060408385031215611e6f57611e6e611ad9565b5b6000611e7d85828601611aff565b9250506020611e8e85828601611ceb565b9150509250929050565b600060208284031215611eae57611ead611ad9565b5b6000611ebc84828501611b35565b91505092915050565b6000602082019050611eda6000830184611c64565b92915050565b60008060408385031215611ef757611ef6611ad9565b5b6000611f0585828601611b35565b9250506020611f1685828601611aff565b9150509250929050565b60008060408385031215611f3757611f36611ad9565b5b6000611f4585828601611aff565b9250506020611f5685828601611dc1565b9150509250929050565b600081519050919050565b600082825260208201905092915050565b6000819050602082019050919050565b611f9581611b14565b82525050565b611fa481611bcc565b82525050565b611fb381611c43565b82525050565b611fc281611ade565b82525050565b60c082016000820151611fde6000850182611f8c565b506020820151611ff16020850182611f9b565b5060408201516120046040850182611faa565b5060608201516120176060850182611fb9565b50608082015161202a6080850182611f8c565b5060a082015161203d60a0850182611f8c565b50505050565b600061204f8383611fc8565b60c08301905092915050565b6000602082019050919050565b600061207382611f60565b61207d8185611f6b565b935061208883611f7c565b8060005b838110156120b95781516120a08882612043565b97506120ab8361205b565b92505060018101905061208c565b5085935050505092915050565b600060208201905081810360008301526120e08184612068565b905092915050565b6000602082840312156120fe576120fd611ad9565b5b600061210c84828501611ceb565b91505092915050565b7f4e487b7100000000000000000000000000000000000000000000000000000000600052601160045260246000fd5b600061214f82611b14565b915061215a83611b14565b92508282101561216d5761216c612115565b5b828203905092915050565b7f4e487b7100000000000000000000000000000000000000000000000000000000600052603260045260246000fd5b60006121b282611b14565b9150600082036121c5576121c4612115565b5b600182039050919050565b60006121db82611b14565b91507fffffffffffffffffffffffffffffffffffffffffffffffffffffffffffffffff820361220d5761220c612115565b5b600182019050919050565b600082825260208201905092915050565b7f746f6b656e20646f6573206e6f74206578697374000000000000000000000000600082015250565b600061225f601483612218565b915061226a82612229565b602082019050919050565b6000602082019050818103600083015261228e81612252565b9050919050565b7f496e7375666669656e742062616c616e63650000000000000000000000000000600082015250565b60006122cb601283612218565b91506122d682612295565b602082019050919050565b600060208201905081810360008301526122fa816122be565b9050919050565b60006040820190506123166000830185611bde565b6123236020830184611b9d565b9392505050565b60008115159050919050565b61233f8161232a565b811461234a57600080fd5b50565b60008151905061235c81612336565b92915050565b60006020828403121561237857612377611ad9565b5b60006123868482850161234d565b91505092915050565b600081905092915050565b50565b60006123aa60008361238f565b91506123b58261239a565b600082019050919050565b60006123cb8261239d565b9150819050919050565b60006060820190506123ea6000830186611bde565b6123f76020830185611bde565b6124046040830184611b9d565b949350505050565b7f4f776e61626c653a206e6577206f776e657220697320746865207a65726f206160008201527f6464726573730000000000000000000000000000000000000000000000000000602082015250565b6000612468602683612218565b91506124738261240c565b604082019050919050565b600060208201905081810360008301526124978161245b565b9050919050565b60006124a982611b14565b91506124b483611b14565b9250827fffffffffffffffffffffffffffffffffffffffffffffffffffffffffffffffff038211156124e9576124e8612115565b5b828201905092915050565b60006124ff82611b14565b915061250a83611b14565b9250817fffffffffffffffffffffffffffffffffffffffffffffffffffffffffffffffff048311821515161561254357612542612115565b5b828202905092915050565b7f4f776e61626c653a2063616c6c6572206973206e6f7420746865206f776e6572600082015250565b6000612584602083612218565b915061258f8261254e565b602082019050919050565b600060208201905081810360008301526125b381612577565b905091905056fea2646970667358221220f27798477d40363288c6828418621d4798e7d65a237ee94b5e52bab8022bbbcc64736f6c634300080f0033",
  "immutableReferences": {},
  "source": "// SPDX-License-Identifier: MIT\npragma solidity >=0.4.22 <0.9.0;\npragma experimental ABIEncoderV2;\n\nimport \"./wallet.sol\";\n\ncontract Dex is Wallet {\n    using SafeMath for uint256;\n\n    enum Side {\n        BUY,\n        SELL\n    }\n\n    struct Order {\n        uint256 id;\n        address trader;\n        Side side;\n        bytes32 ticker;\n        uint256 amount;\n        uint256 price;\n    }\n\n    uint256 public nextOrderId = 0;\n\n    mapping(bytes32 => mapping(uint256 => Order[])) public orderBook;\n\n    function getOrderBook(bytes32 ticker, Side side)\n        public\n        view\n        returns (Order[] memory)\n    {\n        return orderBook[ticker][uint256(side)];\n    }\n\n    function createLimitOrder(\n        Side side,\n        bytes32 ticker,\n        uint256 amount,\n        uint256 price\n    ) public {\n        if (side == Side.BUY) {\n            require(balances[msg.sender][\"ETH\"] >= amount.mul(price));\n        } else if (side == Side.SELL) {\n            require(balances[msg.sender][ticker] >= amount);\n        }\n\n        Order[] storage orders = orderBook[ticker][uint256(side)];\n\n        orders.push(\n            Order(nextOrderId, msg.sender, side, ticker, amount, price)\n        );\n\n        //BUBBLE SORT\n\n        uint256 i = orders.length > 0 ? orders.length - 1 : 0;\n\n        if (side == Side.BUY) {\n            while (i > 0) {\n                if (orders[i - 1].price > orders[i].price) {\n                    break;\n                }\n                Order memory orderToMove = orders[i - 1];\n                orders[i - 1] = orders[1];\n                orders[1] = orderToMove;\n                i--;\n            }\n        } else if (side == Side.SELL) {\n            while (i > 0) {\n                if (orders[i - 1].price < orders[i].price) {\n                    break;\n                }\n                Order memory orderToMove = orders[i - 1];\n                orders[i - 1] = orders[1];\n                orders[1] = orderToMove;\n                i--;\n            }\n        }\n\n        nextOrderId++;\n    }\n}\n",
  "sourcePath": "/home/plamen/Documents/VSCode/Moralis/eth-201/DEX/contracts/dex.sol",
  "compiler": {
    "name": "solc",
    "version": "0.8.15+commit.e14f2714.Emscripten.clang"
  },
  "schemaVersion": "3.4.8",
  "updatedAt": "2022-07-12T07:21:17.632Z",
  "devdoc": {
    "kind": "dev",
    "methods": {
      "owner()": {
        "details": "Returns the address of the current owner."
      },
      "renounceOwnership()": {
        "details": "Leaves the contract without owner. It will not be possible to call `onlyOwner` functions anymore. Can only be called by the current owner. NOTE: Renouncing ownership will leave the contract without an owner, thereby removing any functionality that is only available to the owner."
      },
      "transferOwnership(address)": {
        "details": "Transfers ownership of the contract to a new account (`newOwner`). Can only be called by the current owner."
      }
    },
    "version": 1
  },
  "userdoc": {
    "kind": "user",
    "methods": {},
    "version": 1
  }
}