{
  "contractName": "Dex",
  "abi": [
    {
      "anonymous": false,
      "inputs": [
        {
          "indexed": true,
          "internalType": "address",
          "name": "previousOwner",
          "type": "address"
        },
        {
          "indexed": true,
          "internalType": "address",
          "name": "newOwner",
          "type": "address"
        }
      ],
      "name": "OwnershipTransferred",
      "type": "event"
    },
    {
      "inputs": [
        {
          "internalType": "bytes32",
          "name": "ticker",
          "type": "bytes32"
        },
        {
          "internalType": "address",
          "name": "tokenAddress",
          "type": "address"
        }
      ],
      "name": "addToken",
      "outputs": [],
      "stateMutability": "nonpayable",
      "type": "function"
    },
    {
      "inputs": [
        {
          "internalType": "address",
          "name": "",
          "type": "address"
        },
        {
          "internalType": "bytes32",
          "name": "",
          "type": "bytes32"
        }
      ],
      "name": "balances",
      "outputs": [
        {
          "internalType": "uint256",
          "name": "",
          "type": "uint256"
        }
      ],
      "stateMutability": "view",
      "type": "function"
    },
    {
      "inputs": [
        {
          "internalType": "uint256",
          "name": "amount",
          "type": "uint256"
        },
        {
          "internalType": "bytes32",
          "name": "ticker",
          "type": "bytes32"
        }
      ],
      "name": "deposit",
      "outputs": [],
      "stateMutability": "nonpayable",
      "type": "function"
    },
    {
      "inputs": [],
      "name": "depositEth",
      "outputs": [],
      "stateMutability": "payable",
      "type": "function"
    },
    {
      "inputs": [],
      "name": "nextOrderId",
      "outputs": [
        {
          "internalType": "uint256",
          "name": "",
          "type": "uint256"
        }
      ],
      "stateMutability": "view",
      "type": "function"
    },
    {
      "inputs": [
        {
          "internalType": "bytes32",
          "name": "",
          "type": "bytes32"
        },
        {
          "internalType": "uint256",
          "name": "",
          "type": "uint256"
        },
        {
          "internalType": "uint256",
          "name": "",
          "type": "uint256"
        }
      ],
      "name": "orderBook",
      "outputs": [
        {
          "internalType": "uint256",
          "name": "id",
          "type": "uint256"
        },
        {
          "internalType": "address",
          "name": "trader",
          "type": "address"
        },
        {
          "internalType": "enum Dex.Side",
          "name": "side",
          "type": "uint8"
        },
        {
          "internalType": "bytes32",
          "name": "ticker",
          "type": "bytes32"
        },
        {
          "internalType": "uint256",
          "name": "amount",
          "type": "uint256"
        },
        {
          "internalType": "uint256",
          "name": "price",
          "type": "uint256"
        },
        {
          "internalType": "uint256",
          "name": "filled",
          "type": "uint256"
        }
      ],
      "stateMutability": "view",
      "type": "function"
    },
    {
      "inputs": [],
      "name": "owner",
      "outputs": [
        {
          "internalType": "address",
          "name": "",
          "type": "address"
        }
      ],
      "stateMutability": "view",
      "type": "function"
    },
    {
      "inputs": [],
      "name": "renounceOwnership",
      "outputs": [],
      "stateMutability": "nonpayable",
      "type": "function"
    },
    {
      "inputs": [
        {
          "internalType": "uint256",
          "name": "",
          "type": "uint256"
        }
      ],
      "name": "tokenList",
      "outputs": [
        {
          "internalType": "bytes32",
          "name": "",
          "type": "bytes32"
        }
      ],
      "stateMutability": "view",
      "type": "function"
    },
    {
      "inputs": [
        {
          "internalType": "bytes32",
          "name": "",
          "type": "bytes32"
        }
      ],
      "name": "tokenMapping",
      "outputs": [
        {
          "internalType": "bytes32",
          "name": "ticker",
          "type": "bytes32"
        },
        {
          "internalType": "address",
          "name": "tokenAddress",
          "type": "address"
        }
      ],
      "stateMutability": "view",
      "type": "function"
    },
    {
      "inputs": [
        {
          "internalType": "address",
          "name": "newOwner",
          "type": "address"
        }
      ],
      "name": "transferOwnership",
      "outputs": [],
      "stateMutability": "nonpayable",
      "type": "function"
    },
    {
      "inputs": [
        {
          "internalType": "uint256",
          "name": "amount",
          "type": "uint256"
        },
        {
          "internalType": "bytes32",
          "name": "ticker",
          "type": "bytes32"
        }
      ],
      "name": "withdraw",
      "outputs": [],
      "stateMutability": "nonpayable",
      "type": "function"
    },
    {
      "inputs": [
        {
          "internalType": "uint256",
          "name": "amount",
          "type": "uint256"
        }
      ],
      "name": "withdrawEth",
      "outputs": [],
      "stateMutability": "nonpayable",
      "type": "function"
    },
    {
      "inputs": [
        {
          "internalType": "bytes32",
          "name": "ticker",
          "type": "bytes32"
        },
        {
          "internalType": "enum Dex.Side",
          "name": "side",
          "type": "uint8"
        }
      ],
      "name": "getOrderBook",
      "outputs": [
        {
          "components": [
            {
              "internalType": "uint256",
              "name": "id",
              "type": "uint256"
            },
            {
              "internalType": "address",
              "name": "trader",
              "type": "address"
            },
            {
              "internalType": "enum Dex.Side",
              "name": "side",
              "type": "uint8"
            },
            {
              "internalType": "bytes32",
              "name": "ticker",
              "type": "bytes32"
            },
            {
              "internalType": "uint256",
              "name": "amount",
              "type": "uint256"
            },
            {
              "internalType": "uint256",
              "name": "price",
              "type": "uint256"
            },
            {
              "internalType": "uint256",
              "name": "filled",
              "type": "uint256"
            }
          ],
          "internalType": "struct Dex.Order[]",
          "name": "",
          "type": "tuple[]"
        }
      ],
      "stateMutability": "view",
      "type": "function"
    },
    {
      "inputs": [
        {
          "internalType": "enum Dex.Side",
          "name": "side",
          "type": "uint8"
        },
        {
          "internalType": "bytes32",
          "name": "ticker",
          "type": "bytes32"
        },
        {
          "internalType": "uint256",
          "name": "amount",
          "type": "uint256"
        },
        {
          "internalType": "uint256",
          "name": "price",
          "type": "uint256"
        }
      ],
      "name": "createLimitOrder",
      "outputs": [],
      "stateMutability": "nonpayable",
      "type": "function"
    },
    {
      "inputs": [
        {
          "internalType": "enum Dex.Side",
          "name": "side",
          "type": "uint8"
        },
        {
          "internalType": "bytes32",
          "name": "ticker",
          "type": "bytes32"
        },
        {
          "internalType": "uint256",
          "name": "amount",
          "type": "uint256"
        }
      ],
      "name": "createMarketOrder",
      "outputs": [],
      "stateMutability": "nonpayable",
      "type": "function"
    }
  ],
  "bytecode": "0x608060405260006004553480156200001657600080fd5b50620000376200002b6200003d60201b60201c565b6200004560201b60201c565b62000109565b600033905090565b60008060009054906101000a900473ffffffffffffffffffffffffffffffffffffffff169050816000806101000a81548173ffffffffffffffffffffffffffffffffffffffff021916908373ffffffffffffffffffffffffffffffffffffffff1602179055508173ffffffffffffffffffffffffffffffffffffffff168173ffffffffffffffffffffffffffffffffffffffff167f8be0079c531659141344cd1fd0a4f28419497f9722a3daafe3b4186f6b6457e060405160405180910390a35050565b6135a580620001196000396000f3fe6080604052600436106100f35760003560e01c80639776aacf1161008a578063ba58ea6811610059578063ba58ea681461030e578063c311d0491461034b578063c9630cb014610374578063f2fde38b1461039d576100f3565b80639776aacf1461025657806399ec2f1c1461027f5780639ead7222146102a8578063a8d2021a146102e5576100f3565b8063667cb4ba116100c6578063667cb4ba146101ad5780636f3b62f9146101eb578063715018a6146102145780638da5cb5b1461022b576100f3565b80630bb431b6146100f85780631f14df691461013b5780632a58b33014610178578063439370b1146101a3575b600080fd5b34801561010457600080fd5b5061011f600480360381019061011a9190612984565b6103c6565b6040516101329796959493929190612aad565b60405180910390f35b34801561014757600080fd5b50610162600480360381019061015d9190612b48565b61045f565b60405161016f9190612b88565b60405180910390f35b34801561018457600080fd5b5061018d610484565b60405161019a9190612b88565b60405180910390f35b6101ab61048a565b005b3480156101b957600080fd5b506101d460048036038101906101cf9190612ba3565b610583565b6040516101e2929190612bd0565b60405180910390f35b3480156101f757600080fd5b50610212600480360381019061020d9190612c1e565b6105c7565b005b34801561022057600080fd5b50610229611002565b005b34801561023757600080fd5b50610240611016565b60405161024d9190612c85565b60405180910390f35b34801561026257600080fd5b5061027d60048036038101906102789190612ca0565b61103f565b005b34801561028b57600080fd5b506102a660048036038101906102a19190612ce0565b611106565b005b3480156102b457600080fd5b506102cf60048036038101906102ca9190612d33565b611e6a565b6040516102dc9190612d60565b60405180910390f35b3480156102f157600080fd5b5061030c60048036038101906103079190612d7b565b611e8e565b005b34801561031a57600080fd5b5061033560048036038101906103309190612dbb565b612138565b6040516103429190612f74565b60405180910390f35b34801561035757600080fd5b50610372600480360381019061036d9190612d33565b612291565b005b34801561038057600080fd5b5061039b60048036038101906103969190612d7b565b6124eb565b005b3480156103a957600080fd5b506103c460048036038101906103bf9190612f96565b612704565b005b600560205282600052604060002060205281600052604060002081815481106103ee57600080fd5b906000526020600020906006020160009250925050508060000154908060010160009054906101000a900473ffffffffffffffffffffffffffffffffffffffff16908060010160149054906101000a900460ff16908060020154908060030154908060040154908060050154905087565b6003602052816000526040600020602052806000526040600020600091509150505481565b60045481565b61050d34600360003373ffffffffffffffffffffffffffffffffffffffff1673ffffffffffffffffffffffffffffffffffffffff16815260200190815260200160002060007f455448000000000000000000000000000000000000000000000000000000000081526020019081526020016000205461278790919063ffffffff16565b600360003373ffffffffffffffffffffffffffffffffffffffff1673ffffffffffffffffffffffffffffffffffffffff16815260200190815260200160002060007f4554480000000000000000000000000000000000000000000000000000000000815260200190815260200160002081905550565b60016020528060005260406000206000915090508060000154908060010160009054906101000a900473ffffffffffffffffffffffffffffffffffffffff16905082565b600060018111156105db576105da612a27565b5b8460018111156105ee576105ed612a27565b5b0361068757610606818361279d90919063ffffffff16565b600360003373ffffffffffffffffffffffffffffffffffffffff1673ffffffffffffffffffffffffffffffffffffffff16815260200190815260200160002060007f4554480000000000000000000000000000000000000000000000000000000000815260200190815260200160002054101561068257600080fd5b610711565b60018081111561069a57610699612a27565b5b8460018111156106ad576106ac612a27565b5b036107105781600360003373ffffffffffffffffffffffffffffffffffffffff1673ffffffffffffffffffffffffffffffffffffffff168152602001908152602001600020600085815260200190815260200160002054101561070f57600080fd5b5b5b600060056000858152602001908152602001600020600086600181111561073b5761073a612a27565b5b81526020019081526020016000209050806040518060e0016040528060045481526020013373ffffffffffffffffffffffffffffffffffffffff16815260200187600181111561078e5761078d612a27565b5b8152602001868152602001858152602001848152602001600081525090806001815401808255809150506001900390600052602060002090600602016000909190919091506000820151816000015560208201518160010160006101000a81548173ffffffffffffffffffffffffffffffffffffffff021916908373ffffffffffffffffffffffffffffffffffffffff16021790555060408201518160010160146101000a81548160ff0219169083600181111561084f5761084e612a27565b5b0217905550606082015181600201556080820151816003015560a0820151816004015560c0820151816005015550506000808280549050116108925760006108a4565b600182805490506108a39190612ff2565b5b9050600060018111156108ba576108b9612a27565b5b8660018111156108cd576108cc612a27565b5b03610c46575b6000811115610c41578181815481106108ef576108ee613026565b5b9060005260206000209060060201600401548260018361090f9190612ff2565b815481106109205761091f613026565b5b90600052602060002090600602016004015411610c41576000826001836109479190612ff2565b8154811061095857610957613026565b5b90600052602060002090600602016040518060e0016040529081600082015481526020016001820160009054906101000a900473ffffffffffffffffffffffffffffffffffffffff1673ffffffffffffffffffffffffffffffffffffffff1673ffffffffffffffffffffffffffffffffffffffff1681526020016001820160149054906101000a900460ff1660018111156109f6576109f5612a27565b5b6001811115610a0857610a07612a27565b5b8152602001600282015481526020016003820154815260200160048201548152602001600582015481525050905082600181548110610a4a57610a49613026565b5b906000526020600020906006020183600184610a669190612ff2565b81548110610a7757610a76613026565b5b9060005260206000209060060201600082015481600001556001820160009054906101000a900473ffffffffffffffffffffffffffffffffffffffff168160010160006101000a81548173ffffffffffffffffffffffffffffffffffffffff021916908373ffffffffffffffffffffffffffffffffffffffff1602179055506001820160149054906101000a900460ff168160010160146101000a81548160ff02191690836001811115610b2e57610b2d612a27565b5b0217905550600282015481600201556003820154816003015560048201548160040155600582015481600501559050508083600181548110610b7357610b72613026565b5b90600052602060002090600602016000820151816000015560208201518160010160006101000a81548173ffffffffffffffffffffffffffffffffffffffff021916908373ffffffffffffffffffffffffffffffffffffffff16021790555060408201518160010160146101000a81548160ff02191690836001811115610bfd57610bfc612a27565b5b0217905550606082015181600201556080820151816003015560a0820151816004015560c082015181600501559050508180610c3890613055565b925050506108d3565b610fe2565b600180811115610c5957610c58612a27565b5b866001811115610c6c57610c6b612a27565b5b03610fe1575b6000811115610fe057818181548110610c8e57610c8d613026565b5b90600052602060002090600602016004015482600183610cae9190612ff2565b81548110610cbf57610cbe613026565b5b90600052602060002090600602016004015410610fe057600082600183610ce69190612ff2565b81548110610cf757610cf6613026565b5b90600052602060002090600602016040518060e0016040529081600082015481526020016001820160009054906101000a900473ffffffffffffffffffffffffffffffffffffffff1673ffffffffffffffffffffffffffffffffffffffff1673ffffffffffffffffffffffffffffffffffffffff1681526020016001820160149054906101000a900460ff166001811115610d9557610d94612a27565b5b6001811115610da757610da6612a27565b5b8152602001600282015481526020016003820154815260200160048201548152602001600582015481525050905082600181548110610de957610de8613026565b5b906000526020600020906006020183600184610e059190612ff2565b81548110610e1657610e15613026565b5b9060005260206000209060060201600082015481600001556001820160009054906101000a900473ffffffffffffffffffffffffffffffffffffffff168160010160006101000a81548173ffffffffffffffffffffffffffffffffffffffff021916908373ffffffffffffffffffffffffffffffffffffffff1602179055506001820160149054906101000a900460ff168160010160146101000a81548160ff02191690836001811115610ecd57610ecc612a27565b5b0217905550600282015481600201556003820154816003015560048201548160040155600582015481600501559050508083600181548110610f1257610f11613026565b5b90600052602060002090600602016000820151816000015560208201518160010160006101000a81548173ffffffffffffffffffffffffffffffffffffffff021916908373ffffffffffffffffffffffffffffffffffffffff16021790555060408201518160010160146101000a81548160ff02191690836001811115610f9c57610f9b612a27565b5b0217905550606082015181600201556080820151816003015560a0820151816004015560c082015181600501559050508180610fd790613055565b92505050610c72565b5b5b60046000815480929190610ff59061307e565b9190505550505050505050565b61100a6127b3565b6110146000612831565b565b60008060009054906101000a900473ffffffffffffffffffffffffffffffffffffffff16905090565b6110476127b3565b60405180604001604052808381526020018273ffffffffffffffffffffffffffffffffffffffff16815250600160008481526020019081526020016000206000820151816000015560208201518160010160006101000a81548173ffffffffffffffffffffffffffffffffffffffff021916908373ffffffffffffffffffffffffffffffffffffffff16021790555090505060028290806001815401808255809150506001900390600052602060002001600090919091909150555050565b600080600181111561111b5761111a612a27565b5b84600181111561112e5761112d612a27565b5b0361113c57600190506111d4565b6000905081600360003373ffffffffffffffffffffffffffffffffffffffff1673ffffffffffffffffffffffffffffffffffffffff16815260200190815260200160002060008581526020019081526020016000205410156111d3576040517f08c379a00000000000000000000000000000000000000000000000000000000081526004016111ca90613123565b60405180910390fd5b5b600060056000858152602001908152602001600020600083815260200190815260200160002090506000805b82805490508110801561121257508482105b15611c1657600061122c83876128f590919063ffffffff16565b9050600061128b85848154811061124657611245613026565b5b90600052602060002090600602016005015486858154811061126b5761126a613026565b5b9060005260206000209060060201600301546128f590919063ffffffff16565b905060008282111561129f578290506112a3565b8190505b6112b6818661278790919063ffffffff16565b94506112ef818786815481106112cf576112ce613026565b5b90600052602060002090600602016005015461278790919063ffffffff16565b86858154811061130257611301613026565b5b906000526020600020906006020160050181905550600061135087868154811061132f5761132e613026565b5b9060005260206000209060060201600401548361279d90919063ffffffff16565b90506000600181111561136657611365612a27565b5b8b600181111561137957611378612a27565b5b0361181a576113b587868154811061139457611393613026565b5b9060005260206000209060060201600401548361279d90919063ffffffff16565b600360003373ffffffffffffffffffffffffffffffffffffffff1673ffffffffffffffffffffffffffffffffffffffff16815260200190815260200160002060007f4554480000000000000000000000000000000000000000000000000000000000815260200190815260200160002054101561143157600080fd5b61149482600360003373ffffffffffffffffffffffffffffffffffffffff1673ffffffffffffffffffffffffffffffffffffffff16815260200190815260200160002060008d81526020019081526020016000205461278790919063ffffffff16565b600360003373ffffffffffffffffffffffffffffffffffffffff1673ffffffffffffffffffffffffffffffffffffffff16815260200190815260200160002060008c81526020019081526020016000208190555061156b81600360003373ffffffffffffffffffffffffffffffffffffffff1673ffffffffffffffffffffffffffffffffffffffff16815260200190815260200160002060007f45544800000000000000000000000000000000000000000000000000000000008152602001908152602001600020546128f590919063ffffffff16565b600360003373ffffffffffffffffffffffffffffffffffffffff1673ffffffffffffffffffffffffffffffffffffffff16815260200190815260200160002060007f455448000000000000000000000000000000000000000000000000000000000081526020019081526020016000208190555061164281600360003373ffffffffffffffffffffffffffffffffffffffff1673ffffffffffffffffffffffffffffffffffffffff16815260200190815260200160002060008d8152602001908152602001600020546128f590919063ffffffff16565b6003600089888154811061165957611658613026565b5b906000526020600020906006020160010160009054906101000a900473ffffffffffffffffffffffffffffffffffffffff1673ffffffffffffffffffffffffffffffffffffffff1673ffffffffffffffffffffffffffffffffffffffff16815260200190815260200160002060008c81526020019081526020016000208190555061175d82600360003373ffffffffffffffffffffffffffffffffffffffff1673ffffffffffffffffffffffffffffffffffffffff16815260200190815260200160002060007f455448000000000000000000000000000000000000000000000000000000000081526020019081526020016000205461278790919063ffffffff16565b6003600089888154811061177457611773613026565b5b906000526020600020906006020160010160009054906101000a900473ffffffffffffffffffffffffffffffffffffffff1673ffffffffffffffffffffffffffffffffffffffff1673ffffffffffffffffffffffffffffffffffffffff16815260200190815260200160002060007f4554480000000000000000000000000000000000000000000000000000000000815260200190815260200160002081905550611bff565b61187d82600360003373ffffffffffffffffffffffffffffffffffffffff1673ffffffffffffffffffffffffffffffffffffffff16815260200190815260200160002060008d8152602001908152602001600020546128f590919063ffffffff16565b600360003373ffffffffffffffffffffffffffffffffffffffff1673ffffffffffffffffffffffffffffffffffffffff16815260200190815260200160002060008c81526020019081526020016000208190555061195481600360003373ffffffffffffffffffffffffffffffffffffffff1673ffffffffffffffffffffffffffffffffffffffff16815260200190815260200160002060007f455448000000000000000000000000000000000000000000000000000000000081526020019081526020016000205461278790919063ffffffff16565b600360003373ffffffffffffffffffffffffffffffffffffffff1673ffffffffffffffffffffffffffffffffffffffff16815260200190815260200160002060007f4554480000000000000000000000000000000000000000000000000000000000815260200190815260200160002081905550611a2b81600360003373ffffffffffffffffffffffffffffffffffffffff1673ffffffffffffffffffffffffffffffffffffffff16815260200190815260200160002060008d81526020019081526020016000205461278790919063ffffffff16565b60036000898881548110611a4257611a41613026565b5b906000526020600020906006020160010160009054906101000a900473ffffffffffffffffffffffffffffffffffffffff1673ffffffffffffffffffffffffffffffffffffffff1673ffffffffffffffffffffffffffffffffffffffff16815260200190815260200160002060008c815260200190815260200160002081905550611b4682600360003373ffffffffffffffffffffffffffffffffffffffff1673ffffffffffffffffffffffffffffffffffffffff16815260200190815260200160002060007f45544800000000000000000000000000000000000000000000000000000000008152602001908152602001600020546128f590919063ffffffff16565b60036000898881548110611b5d57611b5c613026565b5b906000526020600020906006020160010160009054906101000a900473ffffffffffffffffffffffffffffffffffffffff1673ffffffffffffffffffffffffffffffffffffffff1673ffffffffffffffffffffffffffffffffffffffff16815260200190815260200160002060007f45544800000000000000000000000000000000000000000000000000000000008152602001908152602001600020819055505b505050508080611c0e9061307e565b915050611200565b505b60008280549050118015611c75575081600081548110611c3b57611c3a613026565b5b90600052602060002090600602016003015482600081548110611c6157611c60613026565b5b906000526020600020906006020160050154145b15611e625760005b60018380549050611c8e9190612ff2565b811015611dcf5782600182611ca39190613143565b81548110611cb457611cb3613026565b5b9060005260206000209060060201838281548110611cd557611cd4613026565b5b9060005260206000209060060201600082015481600001556001820160009054906101000a900473ffffffffffffffffffffffffffffffffffffffff168160010160006101000a81548173ffffffffffffffffffffffffffffffffffffffff021916908373ffffffffffffffffffffffffffffffffffffffff1602179055506001820160149054906101000a900460ff168160010160146101000a81548160ff02191690836001811115611d8c57611d8b612a27565b5b0217905550600282015481600201556003820154816003015560048201548160040155600582015481600501559050508080611dc79061307e565b915050611c7d565b5081805480611de157611de0613199565b5b60019003818190600052602060002090600602016000808201600090556001820160006101000a81549073ffffffffffffffffffffffffffffffffffffffff02191690556001820160146101000a81549060ff0219169055600282016000905560038201600090556004820160009055600582016000905550509055611c18565b505050505050565b60028181548110611e7a57600080fd5b906000526020600020016000915090505481565b80600073ffffffffffffffffffffffffffffffffffffffff166001600083815260200190815260200160002060010160009054906101000a900473ffffffffffffffffffffffffffffffffffffffff1673ffffffffffffffffffffffffffffffffffffffff1603611f34576040517f08c379a0000000000000000000000000000000000000000000000000000000008152600401611f2b90613214565b60405180910390fd5b82600360003373ffffffffffffffffffffffffffffffffffffffff1673ffffffffffffffffffffffffffffffffffffffff1681526020019081526020016000206000848152602001908152602001600020541015611fc7576040517f08c379a0000000000000000000000000000000000000000000000000000000008152600401611fbe90613280565b60405180910390fd5b61202a83600360003373ffffffffffffffffffffffffffffffffffffffff1673ffffffffffffffffffffffffffffffffffffffff1681526020019081526020016000206000858152602001908152602001600020546128f590919063ffffffff16565b600360003373ffffffffffffffffffffffffffffffffffffffff1673ffffffffffffffffffffffffffffffffffffffff1681526020019081526020016000206000848152602001908152602001600020819055506001600083815260200190815260200160002060010160009054906101000a900473ffffffffffffffffffffffffffffffffffffffff1673ffffffffffffffffffffffffffffffffffffffff1663a9059cbb33856040518363ffffffff1660e01b81526004016120ef9291906132a0565b6020604051808303816000875af115801561210e573d6000803e3d6000fd5b505050506040513d601f19601f820116820180604052508101906121329190613301565b50505050565b606060056000848152602001908152602001600020600083600181111561216257612161612a27565b5b8152602001908152602001600020805480602002602001604051908101604052809291908181526020016000905b8282101561228557838290600052602060002090600602016040518060e0016040529081600082015481526020016001820160009054906101000a900473ffffffffffffffffffffffffffffffffffffffff1673ffffffffffffffffffffffffffffffffffffffff1673ffffffffffffffffffffffffffffffffffffffff1681526020016001820160149054906101000a900460ff16600181111561223857612237612a27565b5b600181111561224a57612249612a27565b5b815260200160028201548152602001600382015481526020016004820154815260200160058201548152505081526020019060010190612190565b50505050905092915050565b80600360003373ffffffffffffffffffffffffffffffffffffffff1673ffffffffffffffffffffffffffffffffffffffff16815260200190815260200160002060007f45544800000000000000000000000000000000000000000000000000000000008152602001908152602001600020541015612344576040517f08c379a000000000000000000000000000000000000000000000000000000000815260040161233b90613280565b60405180910390fd5b6123c781600360003373ffffffffffffffffffffffffffffffffffffffff1673ffffffffffffffffffffffffffffffffffffffff16815260200190815260200160002060007f45544800000000000000000000000000000000000000000000000000000000008152602001908152602001600020546128f590919063ffffffff16565b600360003373ffffffffffffffffffffffffffffffffffffffff1673ffffffffffffffffffffffffffffffffffffffff16815260200190815260200160002060007f455448000000000000000000000000000000000000000000000000000000000081526020019081526020016000208190555060003373ffffffffffffffffffffffffffffffffffffffff16826040516124619061335f565b60006040518083038185875af1925050503d806000811461249e576040519150601f19603f3d011682016040523d82523d6000602084013e6124a3565b606091505b50509050806124e7576040517f08c379a00000000000000000000000000000000000000000000000000000000081526004016124de906133c0565b60405180910390fd5b5050565b80600073ffffffffffffffffffffffffffffffffffffffff166001600083815260200190815260200160002060010160009054906101000a900473ffffffffffffffffffffffffffffffffffffffff1673ffffffffffffffffffffffffffffffffffffffff1603612591576040517f08c379a000000000000000000000000000000000000000000000000000000000815260040161258890613214565b60405180910390fd5b6001600083815260200190815260200160002060010160009054906101000a900473ffffffffffffffffffffffffffffffffffffffff1673ffffffffffffffffffffffffffffffffffffffff166323b872dd3330866040518463ffffffff1660e01b8152600401612604939291906133e0565b6020604051808303816000875af1158015612623573d6000803e3d6000fd5b505050506040513d601f19601f820116820180604052508101906126479190613301565b506126ab83600360003373ffffffffffffffffffffffffffffffffffffffff1673ffffffffffffffffffffffffffffffffffffffff16815260200190815260200160002060008581526020019081526020016000205461278790919063ffffffff16565b600360003373ffffffffffffffffffffffffffffffffffffffff1673ffffffffffffffffffffffffffffffffffffffff168152602001908152602001600020600084815260200190815260200160002081905550505050565b61270c6127b3565b600073ffffffffffffffffffffffffffffffffffffffff168173ffffffffffffffffffffffffffffffffffffffff160361277b576040517f08c379a000000000000000000000000000000000000000000000000000000000815260040161277290613489565b60405180910390fd5b61278481612831565b50565b600081836127959190613143565b905092915050565b600081836127ab91906134a9565b905092915050565b6127bb61290b565b73ffffffffffffffffffffffffffffffffffffffff166127d9611016565b73ffffffffffffffffffffffffffffffffffffffff161461282f576040517f08c379a00000000000000000000000000000000000000000000000000000000081526004016128269061354f565b60405180910390fd5b565b60008060009054906101000a900473ffffffffffffffffffffffffffffffffffffffff169050816000806101000a81548173ffffffffffffffffffffffffffffffffffffffff021916908373ffffffffffffffffffffffffffffffffffffffff1602179055508173ffffffffffffffffffffffffffffffffffffffff168173ffffffffffffffffffffffffffffffffffffffff167f8be0079c531659141344cd1fd0a4f28419497f9722a3daafe3b4186f6b6457e060405160405180910390a35050565b600081836129039190612ff2565b905092915050565b600033905090565b600080fd5b6000819050919050565b61292b81612918565b811461293657600080fd5b50565b60008135905061294881612922565b92915050565b6000819050919050565b6129618161294e565b811461296c57600080fd5b50565b60008135905061297e81612958565b92915050565b60008060006060848603121561299d5761299c612913565b5b60006129ab86828701612939565b93505060206129bc8682870161296f565b92505060406129cd8682870161296f565b9150509250925092565b6129e08161294e565b82525050565b600073ffffffffffffffffffffffffffffffffffffffff82169050919050565b6000612a11826129e6565b9050919050565b612a2181612a06565b82525050565b7f4e487b7100000000000000000000000000000000000000000000000000000000600052602160045260246000fd5b60028110612a6757612a66612a27565b5b50565b6000819050612a7882612a56565b919050565b6000612a8882612a6a565b9050919050565b612a9881612a7d565b82525050565b612aa781612918565b82525050565b600060e082019050612ac2600083018a6129d7565b612acf6020830189612a18565b612adc6040830188612a8f565b612ae96060830187612a9e565b612af660808301866129d7565b612b0360a08301856129d7565b612b1060c08301846129d7565b98975050505050505050565b612b2581612a06565b8114612b3057600080fd5b50565b600081359050612b4281612b1c565b92915050565b60008060408385031215612b5f57612b5e612913565b5b6000612b6d85828601612b33565b9250506020612b7e85828601612939565b9150509250929050565b6000602082019050612b9d60008301846129d7565b92915050565b600060208284031215612bb957612bb8612913565b5b6000612bc784828501612939565b91505092915050565b6000604082019050612be56000830185612a9e565b612bf26020830184612a18565b9392505050565b60028110612c0657600080fd5b50565b600081359050612c1881612bf9565b92915050565b60008060008060808587031215612c3857612c37612913565b5b6000612c4687828801612c09565b9450506020612c5787828801612939565b9350506040612c688782880161296f565b9250506060612c798782880161296f565b91505092959194509250565b6000602082019050612c9a6000830184612a18565b92915050565b60008060408385031215612cb757612cb6612913565b5b6000612cc585828601612939565b9250506020612cd685828601612b33565b9150509250929050565b600080600060608486031215612cf957612cf8612913565b5b6000612d0786828701612c09565b9350506020612d1886828701612939565b9250506040612d298682870161296f565b9150509250925092565b600060208284031215612d4957612d48612913565b5b6000612d578482850161296f565b91505092915050565b6000602082019050612d756000830184612a9e565b92915050565b60008060408385031215612d9257612d91612913565b5b6000612da08582860161296f565b9250506020612db185828601612939565b9150509250929050565b60008060408385031215612dd257612dd1612913565b5b6000612de085828601612939565b9250506020612df185828601612c09565b9150509250929050565b600081519050919050565b600082825260208201905092915050565b6000819050602082019050919050565b612e308161294e565b82525050565b612e3f81612a06565b82525050565b612e4e81612a7d565b82525050565b612e5d81612918565b82525050565b60e082016000820151612e796000850182612e27565b506020820151612e8c6020850182612e36565b506040820151612e9f6040850182612e45565b506060820151612eb26060850182612e54565b506080820151612ec56080850182612e27565b5060a0820151612ed860a0850182612e27565b5060c0820151612eeb60c0850182612e27565b50505050565b6000612efd8383612e63565b60e08301905092915050565b6000602082019050919050565b6000612f2182612dfb565b612f2b8185612e06565b9350612f3683612e17565b8060005b83811015612f67578151612f4e8882612ef1565b9750612f5983612f09565b925050600181019050612f3a565b5085935050505092915050565b60006020820190508181036000830152612f8e8184612f16565b905092915050565b600060208284031215612fac57612fab612913565b5b6000612fba84828501612b33565b91505092915050565b7f4e487b7100000000000000000000000000000000000000000000000000000000600052601160045260246000fd5b6000612ffd8261294e565b91506130088361294e565b92508282101561301b5761301a612fc3565b5b828203905092915050565b7f4e487b7100000000000000000000000000000000000000000000000000000000600052603260045260246000fd5b60006130608261294e565b91506000820361307357613072612fc3565b5b600182039050919050565b60006130898261294e565b91507fffffffffffffffffffffffffffffffffffffffffffffffffffffffffffffffff82036130bb576130ba612fc3565b5b600182019050919050565b600082825260208201905092915050565b7f496e73756666696369656e742062616c616e6365210000000000000000000000600082015250565b600061310d6015836130c6565b9150613118826130d7565b602082019050919050565b6000602082019050818103600083015261313c81613100565b9050919050565b600061314e8261294e565b91506131598361294e565b9250827fffffffffffffffffffffffffffffffffffffffffffffffffffffffffffffffff0382111561318e5761318d612fc3565b5b828201905092915050565b7f4e487b7100000000000000000000000000000000000000000000000000000000600052603160045260246000fd5b7f746f6b656e20646f6573206e6f74206578697374000000000000000000000000600082015250565b60006131fe6014836130c6565b9150613209826131c8565b602082019050919050565b6000602082019050818103600083015261322d816131f1565b9050919050565b7f496e7375666669656e742062616c616e63650000000000000000000000000000600082015250565b600061326a6012836130c6565b915061327582613234565b602082019050919050565b600060208201905081810360008301526132998161325d565b9050919050565b60006040820190506132b56000830185612a18565b6132c260208301846129d7565b9392505050565b60008115159050919050565b6132de816132c9565b81146132e957600080fd5b50565b6000815190506132fb816132d5565b92915050565b60006020828403121561331757613316612913565b5b6000613325848285016132ec565b91505092915050565b600081905092915050565b50565b600061334960008361332e565b915061335482613339565b600082019050919050565b600061336a8261333c565b9150819050919050565b7f43616c6c20646964206e6f74206d616b65207468726f75676821000000000000600082015250565b60006133aa601a836130c6565b91506133b582613374565b602082019050919050565b600060208201905081810360008301526133d98161339d565b9050919050565b60006060820190506133f56000830186612a18565b6134026020830185612a18565b61340f60408301846129d7565b949350505050565b7f4f776e61626c653a206e6577206f776e657220697320746865207a65726f206160008201527f6464726573730000000000000000000000000000000000000000000000000000602082015250565b60006134736026836130c6565b915061347e82613417565b604082019050919050565b600060208201905081810360008301526134a281613466565b9050919050565b60006134b48261294e565b91506134bf8361294e565b9250817fffffffffffffffffffffffffffffffffffffffffffffffffffffffffffffffff04831182151516156134f8576134f7612fc3565b5b828202905092915050565b7f4f776e61626c653a2063616c6c6572206973206e6f7420746865206f776e6572600082015250565b60006135396020836130c6565b915061354482613503565b602082019050919050565b600060208201905081810360008301526135688161352c565b905091905056fea2646970667358221220cc8bbb059bcb91e3fe2ff014929910a2a51bc56870a34362e4c41c769342410664736f6c634300080f0033",
  "immutableReferences": {},
  "source": "// SPDX-License-Identifier: MIT\npragma solidity >=0.4.22 <0.9.0;\npragma experimental ABIEncoderV2;\n\nimport \"./wallet.sol\";\n\ncontract Dex is Wallet {\n    using SafeMath for uint256;\n\n    enum Side {\n        BUY,\n        SELL\n    }\n\n    struct Order {\n        uint256 id;\n        address trader;\n        Side side;\n        bytes32 ticker;\n        uint256 amount;\n        uint256 price;\n        uint256 filled;\n    }\n\n    uint256 public nextOrderId = 0;\n\n    mapping(bytes32 => mapping(uint256 => Order[])) public orderBook;\n\n    function getOrderBook(bytes32 ticker, Side side)\n        public\n        view\n        returns (Order[] memory)\n    {\n        return orderBook[ticker][uint256(side)];\n    }\n\n    function createLimitOrder(\n        Side side,\n        bytes32 ticker,\n        uint256 amount,\n        uint256 price\n    ) public {\n        if (side == Side.BUY) {\n            require(balances[msg.sender][\"ETH\"] >= amount.mul(price));\n        } else if (side == Side.SELL) {\n            require(balances[msg.sender][ticker] >= amount);\n        }\n\n        Order[] storage orders = orderBook[ticker][uint256(side)];\n\n        orders.push(\n            Order(nextOrderId, msg.sender, side, ticker, amount, price, 0)\n        );\n\n        //BUBBLE SORT\n\n        uint256 i = orders.length > 0 ? orders.length - 1 : 0;\n\n        if (side == Side.BUY) {\n            while (i > 0) {\n                if (orders[i - 1].price > orders[i].price) {\n                    break;\n                }\n                Order memory orderToMove = orders[i - 1];\n                orders[i - 1] = orders[1];\n                orders[1] = orderToMove;\n                i--;\n            }\n        } else if (side == Side.SELL) {\n            while (i > 0) {\n                if (orders[i - 1].price < orders[i].price) {\n                    break;\n                }\n                Order memory orderToMove = orders[i - 1];\n                orders[i - 1] = orders[1];\n                orders[1] = orderToMove;\n                i--;\n            }\n        }\n\n        nextOrderId++;\n    }\n\n    function createMarketOrder(\n        Side side,\n        bytes32 ticker,\n        uint256 amount\n    ) public {\n        uint256 orderBookSide;\n        if (side == Side.BUY) {\n            orderBookSide = 1;\n        } else {\n            orderBookSide = 0;\n            require(\n                balances[msg.sender][ticker] >= amount,\n                \"Insufficient balance!\"\n            );\n        }\n\n        Order[] storage orders = orderBook[ticker][orderBookSide];\n\n        uint256 totalFilled = 0;\n\n        for (uint256 i = 0; i < orders.length && totalFilled < amount; i++) {\n            //How much we can fill from order[i]\n            uint256 leftToFill = amount.sub(totalFilled);\n            uint256 availableToFill = orders[i].amount.sub(orders[i].filled);\n            uint256 filled = 0;\n            if (availableToFill > leftToFill) {\n                filled = leftToFill;\n            } else {\n                filled = availableToFill;\n            }\n            //Update totalFilled\n            totalFilled = totalFilled.add(filled);\n            orders[i].filled = orders[i].filled.add(filled);\n            uint256 cost = filled.mul(orders[i].price);\n\n            //Execute trade & shift balances between buyer and seller\n            //Verify that the buyer has enough ETH to cover the trade\n\n            if (side == Side.BUY) {\n                require(\n                    balances[msg.sender][\"ETH\"] >= filled.mul(orders[i].price)\n                );\n                balances[msg.sender][ticker] = balances[msg.sender][ticker].add(\n                    filled\n                );\n                balances[msg.sender][\"ETH\"] = balances[msg.sender][\"ETH\"].sub(\n                    cost\n                );\n                balances[orders[i].trader][ticker] = balances[msg.sender][\n                    ticker\n                ].sub(cost);\n                balances[orders[i].trader][\"ETH\"] = balances[msg.sender][\"ETH\"]\n                    .add(filled);\n            } else {\n                balances[msg.sender][ticker] = balances[msg.sender][ticker].sub(\n                    filled\n                );\n                balances[msg.sender][\"ETH\"] = balances[msg.sender][\"ETH\"].add(\n                    cost\n                );\n                balances[orders[i].trader][ticker] = balances[msg.sender][\n                    ticker\n                ].add(cost);\n                balances[orders[i].trader][\"ETH\"] = balances[msg.sender][\"ETH\"]\n                    .sub(filled);\n            }\n        }\n\n        //Loop trough the order book and remove 100% filled orders\n        while (orders.length > 0 && orders[0].filled == orders[0].amount) {\n            for (uint256 i = 0; i < orders.length - 1; i++) {\n                orders[i] = orders[i + 1];\n            }\n            orders.pop();\n        }\n    }\n}\n",
  "sourcePath": "/home/plamen/Documents/VSCode/Moralis/eth-201/DEX/contracts/dex.sol",
  "compiler": {
    "name": "solc",
    "version": "0.8.15+commit.e14f2714.Emscripten.clang"
  },
  "schemaVersion": "3.4.8",
  "updatedAt": "2022-07-13T19:06:42.439Z",
  "devdoc": {
    "kind": "dev",
    "methods": {
      "owner()": {
        "details": "Returns the address of the current owner."
      },
      "renounceOwnership()": {
        "details": "Leaves the contract without owner. It will not be possible to call `onlyOwner` functions anymore. Can only be called by the current owner. NOTE: Renouncing ownership will leave the contract without an owner, thereby removing any functionality that is only available to the owner."
      },
      "transferOwnership(address)": {
        "details": "Transfers ownership of the contract to a new account (`newOwner`). Can only be called by the current owner."
      }
    },
    "version": 1
  },
  "userdoc": {
    "kind": "user",
    "methods": {},
    "version": 1
  }
}