{
  "contractName": "Dex",
  "abi": [
    {
      "anonymous": false,
      "inputs": [
        {
          "indexed": true,
          "internalType": "address",
          "name": "previousOwner",
          "type": "address"
        },
        {
          "indexed": true,
          "internalType": "address",
          "name": "newOwner",
          "type": "address"
        }
      ],
      "name": "OwnershipTransferred",
      "type": "event"
    },
    {
      "inputs": [
        {
          "internalType": "bytes32",
          "name": "ticker",
          "type": "bytes32"
        },
        {
          "internalType": "address",
          "name": "tokenAddress",
          "type": "address"
        }
      ],
      "name": "addToken",
      "outputs": [],
      "stateMutability": "nonpayable",
      "type": "function"
    },
    {
      "inputs": [
        {
          "internalType": "address",
          "name": "",
          "type": "address"
        },
        {
          "internalType": "bytes32",
          "name": "",
          "type": "bytes32"
        }
      ],
      "name": "balances",
      "outputs": [
        {
          "internalType": "uint256",
          "name": "",
          "type": "uint256"
        }
      ],
      "stateMutability": "view",
      "type": "function",
      "constant": true
    },
    {
      "inputs": [
        {
          "internalType": "uint256",
          "name": "amount",
          "type": "uint256"
        },
        {
          "internalType": "bytes32",
          "name": "ticker",
          "type": "bytes32"
        }
      ],
      "name": "deposit",
      "outputs": [],
      "stateMutability": "nonpayable",
      "type": "function"
    },
    {
      "inputs": [],
      "name": "depositEth",
      "outputs": [],
      "stateMutability": "payable",
      "type": "function",
      "payable": true
    },
    {
      "inputs": [
        {
          "internalType": "bytes32",
          "name": "",
          "type": "bytes32"
        },
        {
          "internalType": "uint256",
          "name": "",
          "type": "uint256"
        },
        {
          "internalType": "uint256",
          "name": "",
          "type": "uint256"
        }
      ],
      "name": "orderBook",
      "outputs": [
        {
          "internalType": "uint256",
          "name": "id",
          "type": "uint256"
        },
        {
          "internalType": "address",
          "name": "trader",
          "type": "address"
        },
        {
          "internalType": "bool",
          "name": "buyOrder",
          "type": "bool"
        },
        {
          "internalType": "bytes32",
          "name": "ticker",
          "type": "bytes32"
        },
        {
          "internalType": "uint256",
          "name": "amount",
          "type": "uint256"
        },
        {
          "internalType": "uint256",
          "name": "price",
          "type": "uint256"
        }
      ],
      "stateMutability": "view",
      "type": "function",
      "constant": true
    },
    {
      "inputs": [],
      "name": "owner",
      "outputs": [
        {
          "internalType": "address",
          "name": "",
          "type": "address"
        }
      ],
      "stateMutability": "view",
      "type": "function",
      "constant": true
    },
    {
      "inputs": [],
      "name": "renounceOwnership",
      "outputs": [],
      "stateMutability": "nonpayable",
      "type": "function"
    },
    {
      "inputs": [
        {
          "internalType": "uint256",
          "name": "",
          "type": "uint256"
        }
      ],
      "name": "tokenList",
      "outputs": [
        {
          "internalType": "bytes32",
          "name": "",
          "type": "bytes32"
        }
      ],
      "stateMutability": "view",
      "type": "function",
      "constant": true
    },
    {
      "inputs": [
        {
          "internalType": "bytes32",
          "name": "",
          "type": "bytes32"
        }
      ],
      "name": "tokenMapping",
      "outputs": [
        {
          "internalType": "bytes32",
          "name": "ticker",
          "type": "bytes32"
        },
        {
          "internalType": "address",
          "name": "tokenAddress",
          "type": "address"
        }
      ],
      "stateMutability": "view",
      "type": "function",
      "constant": true
    },
    {
      "inputs": [
        {
          "internalType": "address",
          "name": "newOwner",
          "type": "address"
        }
      ],
      "name": "transferOwnership",
      "outputs": [],
      "stateMutability": "nonpayable",
      "type": "function"
    },
    {
      "inputs": [
        {
          "internalType": "uint256",
          "name": "amount",
          "type": "uint256"
        },
        {
          "internalType": "bytes32",
          "name": "ticker",
          "type": "bytes32"
        }
      ],
      "name": "withdraw",
      "outputs": [],
      "stateMutability": "nonpayable",
      "type": "function"
    },
    {
      "inputs": [
        {
          "internalType": "uint256",
          "name": "amount",
          "type": "uint256"
        }
      ],
      "name": "withdrawEth",
      "outputs": [],
      "stateMutability": "nonpayable",
      "type": "function"
    },
    {
      "inputs": [
        {
          "internalType": "bytes32",
          "name": "ticker",
          "type": "bytes32"
        },
        {
          "internalType": "enum Dex.Side",
          "name": "side",
          "type": "uint8"
        }
      ],
      "name": "getOrderBook",
      "outputs": [
        {
          "components": [
            {
              "internalType": "uint256",
              "name": "id",
              "type": "uint256"
            },
            {
              "internalType": "address",
              "name": "trader",
              "type": "address"
            },
            {
              "internalType": "bool",
              "name": "buyOrder",
              "type": "bool"
            },
            {
              "internalType": "bytes32",
              "name": "ticker",
              "type": "bytes32"
            },
            {
              "internalType": "uint256",
              "name": "amount",
              "type": "uint256"
            },
            {
              "internalType": "uint256",
              "name": "price",
              "type": "uint256"
            }
          ],
          "internalType": "struct Dex.Order[]",
          "name": "",
          "type": "tuple[]"
        }
      ],
      "stateMutability": "view",
      "type": "function",
      "constant": true
    },
    {
      "inputs": [
        {
          "internalType": "enum Dex.Side",
          "name": "side",
          "type": "uint8"
        },
        {
          "internalType": "bytes32",
          "name": "ticker",
          "type": "bytes32"
        },
        {
          "internalType": "uint256",
          "name": "amount",
          "type": "uint256"
        },
        {
          "internalType": "uint256",
          "name": "price",
          "type": "uint256"
        }
      ],
      "name": "createLimitOrder",
      "outputs": [],
      "stateMutability": "view",
      "type": "function",
      "constant": true
    }
  ],
  "bytecode": "0x608060405234801561001057600080fd5b5061002d61002261003260201b60201c565b61003a60201b60201c565b6100fe565b600033905090565b60008060009054906101000a900473ffffffffffffffffffffffffffffffffffffffff169050816000806101000a81548173ffffffffffffffffffffffffffffffffffffffff021916908373ffffffffffffffffffffffffffffffffffffffff1602179055508173ffffffffffffffffffffffffffffffffffffffff168173ffffffffffffffffffffffffffffffffffffffff167f8be0079c531659141344cd1fd0a4f28419497f9722a3daafe3b4186f6b6457e060405160405180910390a35050565b611c1d8061010d6000396000f3fe6080604052600436106100dd5760003560e01c80639776aacf1161007f578063ba58ea6811610059578063ba58ea68146102a3578063c311d049146102e0578063c9630cb014610309578063f2fde38b14610332576100dd565b80639776aacf146102145780639ead72221461023d578063a8d2021a1461027a576100dd565b8063667cb4ba116100bb578063667cb4ba1461016b5780636f3b62f9146101a9578063715018a6146101d25780638da5cb5b146101e9576100dd565b80630bb431b6146100e25780631f14df6914610124578063439370b114610161575b600080fd5b3480156100ee57600080fd5b5061010960048036038101906101049190611250565b61035b565b60405161011b9695949392919061131d565b60405180910390f35b34801561013057600080fd5b5061014b600480360381019061014691906113aa565b6103ee565b60405161015891906113ea565b60405180910390f35b610169610413565b005b34801561017757600080fd5b50610192600480360381019061018d9190611405565b61050c565b6040516101a0929190611432565b60405180910390f35b3480156101b557600080fd5b506101d060048036038101906101cb9190611480565b610550565b005b3480156101de57600080fd5b506101e76106a0565b005b3480156101f557600080fd5b506101fe6106b4565b60405161020b91906114e7565b60405180910390f35b34801561022057600080fd5b5061023b60048036038101906102369190611502565b6106dd565b005b34801561024957600080fd5b50610264600480360381019061025f9190611542565b6107a4565b604051610271919061156f565b60405180910390f35b34801561028657600080fd5b506102a1600480360381019061029c919061158a565b6107c8565b005b3480156102af57600080fd5b506102ca60048036038101906102c591906115ca565b610a72565b6040516102d79190611770565b60405180910390f35b3480156102ec57600080fd5b5061030760048036038101906103029190611542565b610ba1565b005b34801561031557600080fd5b50610330600480360381019061032b919061158a565b610db7565b005b34801561033e57600080fd5b5061035960048036038101906103549190611792565b610fd0565b005b6004602052826000526040600020602052816000526040600020818154811061038357600080fd5b906000526020600020906005020160009250925050508060000154908060010160009054906101000a900473ffffffffffffffffffffffffffffffffffffffff16908060010160149054906101000a900460ff16908060020154908060030154908060040154905086565b6003602052816000526040600020602052806000526040600020600091509150505481565b61049634600360003373ffffffffffffffffffffffffffffffffffffffff1673ffffffffffffffffffffffffffffffffffffffff16815260200190815260200160002060007f455448000000000000000000000000000000000000000000000000000000000081526020019081526020016000205461105390919063ffffffff16565b600360003373ffffffffffffffffffffffffffffffffffffffff1673ffffffffffffffffffffffffffffffffffffffff16815260200190815260200160002060007f4554480000000000000000000000000000000000000000000000000000000000815260200190815260200160002081905550565b60016020528060005260406000206000915090508060000154908060010160009054906101000a900473ffffffffffffffffffffffffffffffffffffffff16905082565b60006001811115610564576105636117bf565b5b846001811115610577576105766117bf565b5b036106105761058f818361106990919063ffffffff16565b600360003373ffffffffffffffffffffffffffffffffffffffff1673ffffffffffffffffffffffffffffffffffffffff16815260200190815260200160002060007f4554480000000000000000000000000000000000000000000000000000000000815260200190815260200160002054101561060b57600080fd5b61069a565b600180811115610623576106226117bf565b5b846001811115610636576106356117bf565b5b036106995781600360003373ffffffffffffffffffffffffffffffffffffffff1673ffffffffffffffffffffffffffffffffffffffff168152602001908152602001600020600085815260200190815260200160002054101561069857600080fd5b5b5b50505050565b6106a861107f565b6106b260006110fd565b565b60008060009054906101000a900473ffffffffffffffffffffffffffffffffffffffff16905090565b6106e561107f565b60405180604001604052808381526020018273ffffffffffffffffffffffffffffffffffffffff16815250600160008481526020019081526020016000206000820151816000015560208201518160010160006101000a81548173ffffffffffffffffffffffffffffffffffffffff021916908373ffffffffffffffffffffffffffffffffffffffff16021790555090505060028290806001815401808255809150506001900390600052602060002001600090919091909150555050565b600281815481106107b457600080fd5b906000526020600020016000915090505481565b80600073ffffffffffffffffffffffffffffffffffffffff166001600083815260200190815260200160002060010160009054906101000a900473ffffffffffffffffffffffffffffffffffffffff1673ffffffffffffffffffffffffffffffffffffffff160361086e576040517f08c379a00000000000000000000000000000000000000000000000000000000081526004016108659061184b565b60405180910390fd5b82600360003373ffffffffffffffffffffffffffffffffffffffff1673ffffffffffffffffffffffffffffffffffffffff1681526020019081526020016000206000848152602001908152602001600020541015610901576040517f08c379a00000000000000000000000000000000000000000000000000000000081526004016108f8906118b7565b60405180910390fd5b61096483600360003373ffffffffffffffffffffffffffffffffffffffff1673ffffffffffffffffffffffffffffffffffffffff1681526020019081526020016000206000858152602001908152602001600020546111c190919063ffffffff16565b600360003373ffffffffffffffffffffffffffffffffffffffff1673ffffffffffffffffffffffffffffffffffffffff1681526020019081526020016000206000848152602001908152602001600020819055506001600083815260200190815260200160002060010160009054906101000a900473ffffffffffffffffffffffffffffffffffffffff1673ffffffffffffffffffffffffffffffffffffffff1663a9059cbb33856040518363ffffffff1660e01b8152600401610a299291906118d7565b6020604051808303816000875af1158015610a48573d6000803e3d6000fd5b505050506040513d601f19601f82011682018060405250810190610a6c919061192c565b50505050565b6060600460008481526020019081526020016000206000836001811115610a9c57610a9b6117bf565b5b8152602001908152602001600020805480602002602001604051908101604052809291908181526020016000905b82821015610b9557838290600052602060002090600502016040518060c0016040529081600082015481526020016001820160009054906101000a900473ffffffffffffffffffffffffffffffffffffffff1673ffffffffffffffffffffffffffffffffffffffff1673ffffffffffffffffffffffffffffffffffffffff1681526020016001820160149054906101000a900460ff16151515158152602001600282015481526020016003820154815260200160048201548152505081526020019060010190610aca565b50505050905092915050565b80600360003373ffffffffffffffffffffffffffffffffffffffff1673ffffffffffffffffffffffffffffffffffffffff16815260200190815260200160002060007f45544800000000000000000000000000000000000000000000000000000000008152602001908152602001600020541015610c54576040517f08c379a0000000000000000000000000000000000000000000000000000000008152600401610c4b906118b7565b60405180910390fd5b610cd781600360003373ffffffffffffffffffffffffffffffffffffffff1673ffffffffffffffffffffffffffffffffffffffff16815260200190815260200160002060007f45544800000000000000000000000000000000000000000000000000000000008152602001908152602001600020546111c190919063ffffffff16565b600360003373ffffffffffffffffffffffffffffffffffffffff1673ffffffffffffffffffffffffffffffffffffffff16815260200190815260200160002060007f45544800000000000000000000000000000000000000000000000000000000008152602001908152602001600020819055503373ffffffffffffffffffffffffffffffffffffffff1681604051610d6f9061198a565b60006040518083038185875af1925050503d8060008114610dac576040519150601f19603f3d011682016040523d82523d6000602084013e610db1565b606091505b50505050565b80600073ffffffffffffffffffffffffffffffffffffffff166001600083815260200190815260200160002060010160009054906101000a900473ffffffffffffffffffffffffffffffffffffffff1673ffffffffffffffffffffffffffffffffffffffff1603610e5d576040517f08c379a0000000000000000000000000000000000000000000000000000000008152600401610e549061184b565b60405180910390fd5b6001600083815260200190815260200160002060010160009054906101000a900473ffffffffffffffffffffffffffffffffffffffff1673ffffffffffffffffffffffffffffffffffffffff166323b872dd3330866040518463ffffffff1660e01b8152600401610ed09392919061199f565b6020604051808303816000875af1158015610eef573d6000803e3d6000fd5b505050506040513d601f19601f82011682018060405250810190610f13919061192c565b50610f7783600360003373ffffffffffffffffffffffffffffffffffffffff1673ffffffffffffffffffffffffffffffffffffffff16815260200190815260200160002060008581526020019081526020016000205461105390919063ffffffff16565b600360003373ffffffffffffffffffffffffffffffffffffffff1673ffffffffffffffffffffffffffffffffffffffff168152602001908152602001600020600084815260200190815260200160002081905550505050565b610fd861107f565b600073ffffffffffffffffffffffffffffffffffffffff168173ffffffffffffffffffffffffffffffffffffffff1603611047576040517f08c379a000000000000000000000000000000000000000000000000000000000815260040161103e90611a48565b60405180910390fd5b611050816110fd565b50565b600081836110619190611a97565b905092915050565b600081836110779190611aed565b905092915050565b6110876111d7565b73ffffffffffffffffffffffffffffffffffffffff166110a56106b4565b73ffffffffffffffffffffffffffffffffffffffff16146110fb576040517f08c379a00000000000000000000000000000000000000000000000000000000081526004016110f290611b93565b60405180910390fd5b565b60008060009054906101000a900473ffffffffffffffffffffffffffffffffffffffff169050816000806101000a81548173ffffffffffffffffffffffffffffffffffffffff021916908373ffffffffffffffffffffffffffffffffffffffff1602179055508173ffffffffffffffffffffffffffffffffffffffff168173ffffffffffffffffffffffffffffffffffffffff167f8be0079c531659141344cd1fd0a4f28419497f9722a3daafe3b4186f6b6457e060405160405180910390a35050565b600081836111cf9190611bb3565b905092915050565b600033905090565b600080fd5b6000819050919050565b6111f7816111e4565b811461120257600080fd5b50565b600081359050611214816111ee565b92915050565b6000819050919050565b61122d8161121a565b811461123857600080fd5b50565b60008135905061124a81611224565b92915050565b600080600060608486031215611269576112686111df565b5b600061127786828701611205565b93505060206112888682870161123b565b92505060406112998682870161123b565b9150509250925092565b6112ac8161121a565b82525050565b600073ffffffffffffffffffffffffffffffffffffffff82169050919050565b60006112dd826112b2565b9050919050565b6112ed816112d2565b82525050565b60008115159050919050565b611308816112f3565b82525050565b611317816111e4565b82525050565b600060c08201905061133260008301896112a3565b61133f60208301886112e4565b61134c60408301876112ff565b611359606083018661130e565b61136660808301856112a3565b61137360a08301846112a3565b979650505050505050565b611387816112d2565b811461139257600080fd5b50565b6000813590506113a48161137e565b92915050565b600080604083850312156113c1576113c06111df565b5b60006113cf85828601611395565b92505060206113e085828601611205565b9150509250929050565b60006020820190506113ff60008301846112a3565b92915050565b60006020828403121561141b5761141a6111df565b5b600061142984828501611205565b91505092915050565b6000604082019050611447600083018561130e565b61145460208301846112e4565b9392505050565b6002811061146857600080fd5b50565b60008135905061147a8161145b565b92915050565b6000806000806080858703121561149a576114996111df565b5b60006114a88782880161146b565b94505060206114b987828801611205565b93505060406114ca8782880161123b565b92505060606114db8782880161123b565b91505092959194509250565b60006020820190506114fc60008301846112e4565b92915050565b60008060408385031215611519576115186111df565b5b600061152785828601611205565b925050602061153885828601611395565b9150509250929050565b600060208284031215611558576115576111df565b5b60006115668482850161123b565b91505092915050565b6000602082019050611584600083018461130e565b92915050565b600080604083850312156115a1576115a06111df565b5b60006115af8582860161123b565b92505060206115c085828601611205565b9150509250929050565b600080604083850312156115e1576115e06111df565b5b60006115ef85828601611205565b92505060206116008582860161146b565b9150509250929050565b600081519050919050565b600082825260208201905092915050565b6000819050602082019050919050565b61163f8161121a565b82525050565b61164e816112d2565b82525050565b61165d816112f3565b82525050565b61166c816111e4565b82525050565b60c0820160008201516116886000850182611636565b50602082015161169b6020850182611645565b5060408201516116ae6040850182611654565b5060608201516116c16060850182611663565b5060808201516116d46080850182611636565b5060a08201516116e760a0850182611636565b50505050565b60006116f98383611672565b60c08301905092915050565b6000602082019050919050565b600061171d8261160a565b6117278185611615565b935061173283611626565b8060005b8381101561176357815161174a88826116ed565b975061175583611705565b925050600181019050611736565b5085935050505092915050565b6000602082019050818103600083015261178a8184611712565b905092915050565b6000602082840312156117a8576117a76111df565b5b60006117b684828501611395565b91505092915050565b7f4e487b7100000000000000000000000000000000000000000000000000000000600052602160045260246000fd5b600082825260208201905092915050565b7f746f6b656e20646f6573206e6f74206578697374000000000000000000000000600082015250565b60006118356014836117ee565b9150611840826117ff565b602082019050919050565b6000602082019050818103600083015261186481611828565b9050919050565b7f496e7375666669656e742062616c616e63650000000000000000000000000000600082015250565b60006118a16012836117ee565b91506118ac8261186b565b602082019050919050565b600060208201905081810360008301526118d081611894565b9050919050565b60006040820190506118ec60008301856112e4565b6118f960208301846112a3565b9392505050565b611909816112f3565b811461191457600080fd5b50565b60008151905061192681611900565b92915050565b600060208284031215611942576119416111df565b5b600061195084828501611917565b91505092915050565b600081905092915050565b50565b6000611974600083611959565b915061197f82611964565b600082019050919050565b600061199582611967565b9150819050919050565b60006060820190506119b460008301866112e4565b6119c160208301856112e4565b6119ce60408301846112a3565b949350505050565b7f4f776e61626c653a206e6577206f776e657220697320746865207a65726f206160008201527f6464726573730000000000000000000000000000000000000000000000000000602082015250565b6000611a326026836117ee565b9150611a3d826119d6565b604082019050919050565b60006020820190508181036000830152611a6181611a25565b9050919050565b7f4e487b7100000000000000000000000000000000000000000000000000000000600052601160045260246000fd5b6000611aa28261121a565b9150611aad8361121a565b9250827fffffffffffffffffffffffffffffffffffffffffffffffffffffffffffffffff03821115611ae257611ae1611a68565b5b828201905092915050565b6000611af88261121a565b9150611b038361121a565b9250817fffffffffffffffffffffffffffffffffffffffffffffffffffffffffffffffff0483118215151615611b3c57611b3b611a68565b5b828202905092915050565b7f4f776e61626c653a2063616c6c6572206973206e6f7420746865206f776e6572600082015250565b6000611b7d6020836117ee565b9150611b8882611b47565b602082019050919050565b60006020820190508181036000830152611bac81611b70565b9050919050565b6000611bbe8261121a565b9150611bc98361121a565b925082821015611bdc57611bdb611a68565b5b82820390509291505056fea2646970667358221220d7382124dc58f2e31722ffe71c350ef091cfe357b7361e746684d35b67932f0264736f6c634300080f0033",
  "immutableReferences": {},
  "source": "// SPDX-License-Identifier: MIT\npragma solidity >=0.4.22 <0.9.0;\npragma experimental ABIEncoderV2;\n\nimport \"./wallet.sol\";\n\ncontract Dex is Wallet {\n    using SafeMath for uint256;\n\n    enum Side {\n        BUY,\n        SELL\n    }\n\n    struct Order {\n        uint256 id;\n        address trader;\n        bool buyOrder;\n        bytes32 ticker;\n        uint256 amount;\n        uint256 price;\n    }\n\n    mapping(bytes32 => mapping(uint256 => Order[])) public orderBook;\n\n    function getOrderBook(bytes32 ticker, Side side)\n        public\n        view\n        returns (Order[] memory)\n    {\n        return orderBook[ticker][uint256(side)];\n    }\n\n    function createLimitOrder(\n        Side side,\n        bytes32 ticker,\n        uint256 amount,\n        uint256 price\n    ) public view {\n        if (side == Side.BUY) {\n            require(balances[msg.sender][\"ETH\"] >= amount.mul(price));\n        } else if (side == Side.SELL) {\n            require(balances[msg.sender][ticker] >= amount);\n        }\n    }\n}\n",
  "sourcePath": "/home/plamen/Documents/VSCode/Moralis/eth-201/DEX/contracts/dex.sol",
  "compiler": {
    "name": "solc",
    "version": "0.8.15+commit.e14f2714.Emscripten.clang"
  },
  "schemaVersion": "3.4.8",
  "updatedAt": "2022-07-09T16:29:34.346Z",
  "networkType": "ethereum",
  "devdoc": {
    "kind": "dev",
    "methods": {
      "owner()": {
        "details": "Returns the address of the current owner."
      },
      "renounceOwnership()": {
        "details": "Leaves the contract without owner. It will not be possible to call `onlyOwner` functions anymore. Can only be called by the current owner. NOTE: Renouncing ownership will leave the contract without an owner, thereby removing any functionality that is only available to the owner."
      },
      "transferOwnership(address)": {
        "details": "Transfers ownership of the contract to a new account (`newOwner`). Can only be called by the current owner."
      }
    },
    "version": 1
  },
  "userdoc": {
    "kind": "user",
    "methods": {},
    "version": 1
  }
}