{
  "contractName": "Wallet",
  "abi": [
    {
      "anonymous": false,
      "inputs": [
        {
          "indexed": true,
          "internalType": "address",
          "name": "previousOwner",
          "type": "address"
        },
        {
          "indexed": true,
          "internalType": "address",
          "name": "newOwner",
          "type": "address"
        }
      ],
      "name": "OwnershipTransferred",
      "type": "event"
    },
    {
      "inputs": [
        {
          "internalType": "address",
          "name": "",
          "type": "address"
        },
        {
          "internalType": "bytes32",
          "name": "",
          "type": "bytes32"
        }
      ],
      "name": "balances",
      "outputs": [
        {
          "internalType": "uint256",
          "name": "",
          "type": "uint256"
        }
      ],
      "stateMutability": "view",
      "type": "function"
    },
    {
      "inputs": [],
      "name": "owner",
      "outputs": [
        {
          "internalType": "address",
          "name": "",
          "type": "address"
        }
      ],
      "stateMutability": "view",
      "type": "function"
    },
    {
      "inputs": [],
      "name": "renounceOwnership",
      "outputs": [],
      "stateMutability": "nonpayable",
      "type": "function"
    },
    {
      "inputs": [
        {
          "internalType": "uint256",
          "name": "",
          "type": "uint256"
        }
      ],
      "name": "tokenList",
      "outputs": [
        {
          "internalType": "bytes32",
          "name": "",
          "type": "bytes32"
        }
      ],
      "stateMutability": "view",
      "type": "function"
    },
    {
      "inputs": [
        {
          "internalType": "bytes32",
          "name": "",
          "type": "bytes32"
        }
      ],
      "name": "tokenMapping",
      "outputs": [
        {
          "internalType": "bytes32",
          "name": "ticker",
          "type": "bytes32"
        },
        {
          "internalType": "address",
          "name": "tokenAddress",
          "type": "address"
        }
      ],
      "stateMutability": "view",
      "type": "function"
    },
    {
      "inputs": [
        {
          "internalType": "address",
          "name": "newOwner",
          "type": "address"
        }
      ],
      "name": "transferOwnership",
      "outputs": [],
      "stateMutability": "nonpayable",
      "type": "function"
    },
    {
      "inputs": [
        {
          "internalType": "bytes32",
          "name": "ticker",
          "type": "bytes32"
        },
        {
          "internalType": "address",
          "name": "tokenAddress",
          "type": "address"
        }
      ],
      "name": "addToken",
      "outputs": [],
      "stateMutability": "nonpayable",
      "type": "function"
    },
    {
      "inputs": [
        {
          "internalType": "uint256",
          "name": "amount",
          "type": "uint256"
        },
        {
          "internalType": "bytes32",
          "name": "ticker",
          "type": "bytes32"
        }
      ],
      "name": "deposit",
      "outputs": [],
      "stateMutability": "nonpayable",
      "type": "function"
    },
    {
      "inputs": [
        {
          "internalType": "uint256",
          "name": "amount",
          "type": "uint256"
        },
        {
          "internalType": "bytes32",
          "name": "ticker",
          "type": "bytes32"
        }
      ],
      "name": "withdraw",
      "outputs": [],
      "stateMutability": "nonpayable",
      "type": "function"
    },
    {
      "inputs": [],
      "name": "depositEth",
      "outputs": [],
      "stateMutability": "payable",
      "type": "function"
    },
    {
      "inputs": [
        {
          "internalType": "uint256",
          "name": "amount",
          "type": "uint256"
        }
      ],
      "name": "withdrawEth",
      "outputs": [],
      "stateMutability": "nonpayable",
      "type": "function"
    }
  ],
  "bytecode": "0x608060405234801561001057600080fd5b5061002d61002261003260201b60201c565b61003a60201b60201c565b6100fe565b600033905090565b60008060009054906101000a900473ffffffffffffffffffffffffffffffffffffffff169050816000806101000a81548173ffffffffffffffffffffffffffffffffffffffff021916908373ffffffffffffffffffffffffffffffffffffffff1602179055508173ffffffffffffffffffffffffffffffffffffffff168173ffffffffffffffffffffffffffffffffffffffff167f8be0079c531659141344cd1fd0a4f28419497f9722a3daafe3b4186f6b6457e060405160405180910390a35050565b61146c8061010d6000396000f3fe60806040526004361061009c5760003560e01c80639776aacf116100645780639776aacf146101685780639ead722214610191578063a8d2021a146101ce578063c311d049146101f7578063c9630cb014610220578063f2fde38b146102495761009c565b80631f14df69146100a1578063439370b1146100de578063667cb4ba146100e8578063715018a6146101265780638da5cb5b1461013d575b600080fd5b3480156100ad57600080fd5b506100c860048036038101906100c39190610e67565b610272565b6040516100d59190610ec0565b60405180910390f35b6100e6610297565b005b3480156100f457600080fd5b5061010f600480360381019061010a9190610edb565b610390565b60405161011d929190610f26565b60405180910390f35b34801561013257600080fd5b5061013b6103d4565b005b34801561014957600080fd5b506101526103e8565b60405161015f9190610f4f565b60405180910390f35b34801561017457600080fd5b5061018f600480360381019061018a9190610f6a565b610411565b005b34801561019d57600080fd5b506101b860048036038101906101b39190610fd6565b6104d8565b6040516101c59190611003565b60405180910390f35b3480156101da57600080fd5b506101f560048036038101906101f0919061101e565b6104fc565b005b34801561020357600080fd5b5061021e60048036038101906102199190610fd6565b6107a6565b005b34801561022c57600080fd5b506102476004803603810190610242919061101e565b6109bc565b005b34801561025557600080fd5b50610270600480360381019061026b919061105e565b610bd5565b005b6003602052816000526040600020602052806000526040600020600091509150505481565b61031a34600360003373ffffffffffffffffffffffffffffffffffffffff1673ffffffffffffffffffffffffffffffffffffffff16815260200190815260200160002060007f4554480000000000000000000000000000000000000000000000000000000000815260200190815260200160002054610c5890919063ffffffff16565b600360003373ffffffffffffffffffffffffffffffffffffffff1673ffffffffffffffffffffffffffffffffffffffff16815260200190815260200160002060007f4554480000000000000000000000000000000000000000000000000000000000815260200190815260200160002081905550565b60016020528060005260406000206000915090508060000154908060010160009054906101000a900473ffffffffffffffffffffffffffffffffffffffff16905082565b6103dc610c6e565b6103e66000610cec565b565b60008060009054906101000a900473ffffffffffffffffffffffffffffffffffffffff16905090565b610419610c6e565b60405180604001604052808381526020018273ffffffffffffffffffffffffffffffffffffffff16815250600160008481526020019081526020016000206000820151816000015560208201518160010160006101000a81548173ffffffffffffffffffffffffffffffffffffffff021916908373ffffffffffffffffffffffffffffffffffffffff16021790555090505060028290806001815401808255809150506001900390600052602060002001600090919091909150555050565b600281815481106104e857600080fd5b906000526020600020016000915090505481565b80600073ffffffffffffffffffffffffffffffffffffffff166001600083815260200190815260200160002060010160009054906101000a900473ffffffffffffffffffffffffffffffffffffffff1673ffffffffffffffffffffffffffffffffffffffff16036105a2576040517f08c379a0000000000000000000000000000000000000000000000000000000008152600401610599906110e8565b60405180910390fd5b82600360003373ffffffffffffffffffffffffffffffffffffffff1673ffffffffffffffffffffffffffffffffffffffff1681526020019081526020016000206000848152602001908152602001600020541015610635576040517f08c379a000000000000000000000000000000000000000000000000000000000815260040161062c90611154565b60405180910390fd5b61069883600360003373ffffffffffffffffffffffffffffffffffffffff1673ffffffffffffffffffffffffffffffffffffffff168152602001908152602001600020600085815260200190815260200160002054610db090919063ffffffff16565b600360003373ffffffffffffffffffffffffffffffffffffffff1673ffffffffffffffffffffffffffffffffffffffff1681526020019081526020016000206000848152602001908152602001600020819055506001600083815260200190815260200160002060010160009054906101000a900473ffffffffffffffffffffffffffffffffffffffff1673ffffffffffffffffffffffffffffffffffffffff1663a9059cbb33856040518363ffffffff1660e01b815260040161075d929190611174565b6020604051808303816000875af115801561077c573d6000803e3d6000fd5b505050506040513d601f19601f820116820180604052508101906107a091906111d5565b50505050565b80600360003373ffffffffffffffffffffffffffffffffffffffff1673ffffffffffffffffffffffffffffffffffffffff16815260200190815260200160002060007f45544800000000000000000000000000000000000000000000000000000000008152602001908152602001600020541015610859576040517f08c379a000000000000000000000000000000000000000000000000000000000815260040161085090611154565b60405180910390fd5b6108dc81600360003373ffffffffffffffffffffffffffffffffffffffff1673ffffffffffffffffffffffffffffffffffffffff16815260200190815260200160002060007f4554480000000000000000000000000000000000000000000000000000000000815260200190815260200160002054610db090919063ffffffff16565b600360003373ffffffffffffffffffffffffffffffffffffffff1673ffffffffffffffffffffffffffffffffffffffff16815260200190815260200160002060007f45544800000000000000000000000000000000000000000000000000000000008152602001908152602001600020819055503373ffffffffffffffffffffffffffffffffffffffff168160405161097490611233565b60006040518083038185875af1925050503d80600081146109b1576040519150601f19603f3d011682016040523d82523d6000602084013e6109b6565b606091505b50505050565b80600073ffffffffffffffffffffffffffffffffffffffff166001600083815260200190815260200160002060010160009054906101000a900473ffffffffffffffffffffffffffffffffffffffff1673ffffffffffffffffffffffffffffffffffffffff1603610a62576040517f08c379a0000000000000000000000000000000000000000000000000000000008152600401610a59906110e8565b60405180910390fd5b6001600083815260200190815260200160002060010160009054906101000a900473ffffffffffffffffffffffffffffffffffffffff1673ffffffffffffffffffffffffffffffffffffffff166323b872dd3330866040518463ffffffff1660e01b8152600401610ad593929190611248565b6020604051808303816000875af1158015610af4573d6000803e3d6000fd5b505050506040513d601f19601f82011682018060405250810190610b1891906111d5565b50610b7c83600360003373ffffffffffffffffffffffffffffffffffffffff1673ffffffffffffffffffffffffffffffffffffffff168152602001908152602001600020600085815260200190815260200160002054610c5890919063ffffffff16565b600360003373ffffffffffffffffffffffffffffffffffffffff1673ffffffffffffffffffffffffffffffffffffffff168152602001908152602001600020600084815260200190815260200160002081905550505050565b610bdd610c6e565b600073ffffffffffffffffffffffffffffffffffffffff168173ffffffffffffffffffffffffffffffffffffffff1603610c4c576040517f08c379a0000000000000000000000000000000000000000000000000000000008152600401610c43906112f1565b60405180910390fd5b610c5581610cec565b50565b60008183610c669190611340565b905092915050565b610c76610dc6565b73ffffffffffffffffffffffffffffffffffffffff16610c946103e8565b73ffffffffffffffffffffffffffffffffffffffff1614610cea576040517f08c379a0000000000000000000000000000000000000000000000000000000008152600401610ce1906113e2565b60405180910390fd5b565b60008060009054906101000a900473ffffffffffffffffffffffffffffffffffffffff169050816000806101000a81548173ffffffffffffffffffffffffffffffffffffffff021916908373ffffffffffffffffffffffffffffffffffffffff1602179055508173ffffffffffffffffffffffffffffffffffffffff168173ffffffffffffffffffffffffffffffffffffffff167f8be0079c531659141344cd1fd0a4f28419497f9722a3daafe3b4186f6b6457e060405160405180910390a35050565b60008183610dbe9190611402565b905092915050565b600033905090565b600080fd5b600073ffffffffffffffffffffffffffffffffffffffff82169050919050565b6000610dfe82610dd3565b9050919050565b610e0e81610df3565b8114610e1957600080fd5b50565b600081359050610e2b81610e05565b92915050565b6000819050919050565b610e4481610e31565b8114610e4f57600080fd5b50565b600081359050610e6181610e3b565b92915050565b60008060408385031215610e7e57610e7d610dce565b5b6000610e8c85828601610e1c565b9250506020610e9d85828601610e52565b9150509250929050565b6000819050919050565b610eba81610ea7565b82525050565b6000602082019050610ed56000830184610eb1565b92915050565b600060208284031215610ef157610ef0610dce565b5b6000610eff84828501610e52565b91505092915050565b610f1181610e31565b82525050565b610f2081610df3565b82525050565b6000604082019050610f3b6000830185610f08565b610f486020830184610f17565b9392505050565b6000602082019050610f646000830184610f17565b92915050565b60008060408385031215610f8157610f80610dce565b5b6000610f8f85828601610e52565b9250506020610fa085828601610e1c565b9150509250929050565b610fb381610ea7565b8114610fbe57600080fd5b50565b600081359050610fd081610faa565b92915050565b600060208284031215610fec57610feb610dce565b5b6000610ffa84828501610fc1565b91505092915050565b60006020820190506110186000830184610f08565b92915050565b6000806040838503121561103557611034610dce565b5b600061104385828601610fc1565b925050602061105485828601610e52565b9150509250929050565b60006020828403121561107457611073610dce565b5b600061108284828501610e1c565b91505092915050565b600082825260208201905092915050565b7f746f6b656e20646f6573206e6f74206578697374000000000000000000000000600082015250565b60006110d260148361108b565b91506110dd8261109c565b602082019050919050565b60006020820190508181036000830152611101816110c5565b9050919050565b7f496e7375666669656e742062616c616e63650000000000000000000000000000600082015250565b600061113e60128361108b565b915061114982611108565b602082019050919050565b6000602082019050818103600083015261116d81611131565b9050919050565b60006040820190506111896000830185610f17565b6111966020830184610eb1565b9392505050565b60008115159050919050565b6111b28161119d565b81146111bd57600080fd5b50565b6000815190506111cf816111a9565b92915050565b6000602082840312156111eb576111ea610dce565b5b60006111f9848285016111c0565b91505092915050565b600081905092915050565b50565b600061121d600083611202565b91506112288261120d565b600082019050919050565b600061123e82611210565b9150819050919050565b600060608201905061125d6000830186610f17565b61126a6020830185610f17565b6112776040830184610eb1565b949350505050565b7f4f776e61626c653a206e6577206f776e657220697320746865207a65726f206160008201527f6464726573730000000000000000000000000000000000000000000000000000602082015250565b60006112db60268361108b565b91506112e68261127f565b604082019050919050565b6000602082019050818103600083015261130a816112ce565b9050919050565b7f4e487b7100000000000000000000000000000000000000000000000000000000600052601160045260246000fd5b600061134b82610ea7565b915061135683610ea7565b9250827fffffffffffffffffffffffffffffffffffffffffffffffffffffffffffffffff0382111561138b5761138a611311565b5b828201905092915050565b7f4f776e61626c653a2063616c6c6572206973206e6f7420746865206f776e6572600082015250565b60006113cc60208361108b565b91506113d782611396565b602082019050919050565b600060208201905081810360008301526113fb816113bf565b9050919050565b600061140d82610ea7565b915061141883610ea7565b92508282101561142b5761142a611311565b5b82820390509291505056fea264697066735822122094d068556cf07353e2fa372cf2668e5e3e303aaa848348ca2d18bf3f67dcd32964736f6c634300080f0033",
  "immutableReferences": {},
  "source": "// SPDX-License-Identifier: MIT\npragma solidity >=0.4.22 <0.9.0;\n\nimport \"../node_modules/@openzeppelin/contracts/token/ERC20/IERC20.sol\";\nimport \"../node_modules/@openzeppelin/contracts/access/Ownable.sol\";\nimport \"../node_modules/@openzeppelin/contracts/utils/math/SafeMath.sol\";\n\ncontract Wallet is Ownable {\n    using SafeMath for uint256;\n    struct Token {\n        bytes32 ticker;\n        address tokenAddress;\n    }\n\n    mapping(bytes32 => Token) public tokenMapping;\n    bytes32[] public tokenList;\n    mapping(address => mapping(bytes32 => uint256)) public balances;\n\n    function addToken(bytes32 ticker, address tokenAddress) external onlyOwner {\n        tokenMapping[ticker] = Token(ticker, tokenAddress);\n        tokenList.push(ticker);\n    }\n\n    function deposit(uint256 amount, bytes32 ticker)\n        external\n        tokenExist(ticker)\n    {\n        IERC20(tokenMapping[ticker].tokenAddress).transferFrom(\n            msg.sender,\n            address(this),\n            amount\n        );\n        balances[msg.sender][ticker] = balances[msg.sender][ticker].add(amount);\n    }\n\n    function withdraw(uint256 amount, bytes32 ticker)\n        external\n        tokenExist(ticker)\n    {\n        require(balances[msg.sender][ticker] >= amount, \"Insuffient balance\");\n        balances[msg.sender][ticker] = balances[msg.sender][ticker].sub(amount);\n        IERC20(tokenMapping[ticker].tokenAddress).transfer(msg.sender, amount);\n    }\n\n    function depositEth() external payable {\n        balances[msg.sender][bytes32(\"ETH\")] = balances[msg.sender][\n            bytes32(\"ETH\")\n        ].add(msg.value);\n    }\n\n    function withdrawEth(uint256 amount) external {\n        require(\n            balances[msg.sender][bytes32(\"ETH\")] >= amount,\n            \"Insuffient balance\"\n        );\n        balances[msg.sender][bytes32(\"ETH\")] = balances[msg.sender][\n            bytes32(\"ETH\")\n        ].sub(amount);\n        msg.sender.call{value: amount}(\"\");\n    }\n\n    modifier tokenExist(bytes32 ticker) {\n        require(\n            tokenMapping[ticker].tokenAddress != address(0),\n            \"token does not exist\"\n        );\n        _;\n    }\n}\n",
  "sourcePath": "/home/plamen/Documents/VSCode/Moralis/eth-201/DEX/contracts/wallet.sol",
  "compiler": {
    "name": "solc",
    "version": "0.8.15+commit.e14f2714.Emscripten.clang"
  },
  "schemaVersion": "3.4.8",
  "updatedAt": "2022-07-09T15:06:50.233Z",
  "devdoc": {
    "kind": "dev",
    "methods": {
      "owner()": {
        "details": "Returns the address of the current owner."
      },
      "renounceOwnership()": {
        "details": "Leaves the contract without owner. It will not be possible to call `onlyOwner` functions anymore. Can only be called by the current owner. NOTE: Renouncing ownership will leave the contract without an owner, thereby removing any functionality that is only available to the owner."
      },
      "transferOwnership(address)": {
        "details": "Transfers ownership of the contract to a new account (`newOwner`). Can only be called by the current owner."
      }
    },
    "version": 1
  },
  "userdoc": {
    "kind": "user",
    "methods": {},
    "version": 1
  }
}