{
  "contractName": "Wallet",
  "abi": [
    {
      "anonymous": false,
      "inputs": [
        {
          "indexed": true,
          "internalType": "address",
          "name": "previousOwner",
          "type": "address"
        },
        {
          "indexed": true,
          "internalType": "address",
          "name": "newOwner",
          "type": "address"
        }
      ],
      "name": "OwnershipTransferred",
      "type": "event"
    },
    {
      "inputs": [
        {
          "internalType": "address",
          "name": "",
          "type": "address"
        },
        {
          "internalType": "bytes32",
          "name": "",
          "type": "bytes32"
        }
      ],
      "name": "balances",
      "outputs": [
        {
          "internalType": "uint256",
          "name": "",
          "type": "uint256"
        }
      ],
      "stateMutability": "view",
      "type": "function"
    },
    {
      "inputs": [],
      "name": "owner",
      "outputs": [
        {
          "internalType": "address",
          "name": "",
          "type": "address"
        }
      ],
      "stateMutability": "view",
      "type": "function"
    },
    {
      "inputs": [],
      "name": "renounceOwnership",
      "outputs": [],
      "stateMutability": "nonpayable",
      "type": "function"
    },
    {
      "inputs": [
        {
          "internalType": "uint256",
          "name": "",
          "type": "uint256"
        }
      ],
      "name": "tokenList",
      "outputs": [
        {
          "internalType": "bytes32",
          "name": "",
          "type": "bytes32"
        }
      ],
      "stateMutability": "view",
      "type": "function"
    },
    {
      "inputs": [
        {
          "internalType": "bytes32",
          "name": "",
          "type": "bytes32"
        }
      ],
      "name": "tokenMapping",
      "outputs": [
        {
          "internalType": "bytes32",
          "name": "ticker",
          "type": "bytes32"
        },
        {
          "internalType": "address",
          "name": "tokenAddress",
          "type": "address"
        }
      ],
      "stateMutability": "view",
      "type": "function"
    },
    {
      "inputs": [
        {
          "internalType": "address",
          "name": "newOwner",
          "type": "address"
        }
      ],
      "name": "transferOwnership",
      "outputs": [],
      "stateMutability": "nonpayable",
      "type": "function"
    },
    {
      "inputs": [
        {
          "internalType": "bytes32",
          "name": "ticker",
          "type": "bytes32"
        },
        {
          "internalType": "address",
          "name": "tokenAddress",
          "type": "address"
        }
      ],
      "name": "addToken",
      "outputs": [],
      "stateMutability": "nonpayable",
      "type": "function"
    },
    {
      "inputs": [
        {
          "internalType": "uint256",
          "name": "amount",
          "type": "uint256"
        },
        {
          "internalType": "bytes32",
          "name": "ticker",
          "type": "bytes32"
        }
      ],
      "name": "deposit",
      "outputs": [],
      "stateMutability": "nonpayable",
      "type": "function"
    },
    {
      "inputs": [
        {
          "internalType": "uint256",
          "name": "amount",
          "type": "uint256"
        },
        {
          "internalType": "bytes32",
          "name": "ticker",
          "type": "bytes32"
        }
      ],
      "name": "withdraw",
      "outputs": [],
      "stateMutability": "nonpayable",
      "type": "function"
    },
    {
      "inputs": [],
      "name": "depositEth",
      "outputs": [],
      "stateMutability": "payable",
      "type": "function"
    },
    {
      "inputs": [
        {
          "internalType": "uint256",
          "name": "amount",
          "type": "uint256"
        }
      ],
      "name": "withdrawEth",
      "outputs": [],
      "stateMutability": "nonpayable",
      "type": "function"
    }
  ],
  "bytecode": "0x608060405234801561001057600080fd5b5061002d61002261003260201b60201c565b61003a60201b60201c565b6100fe565b600033905090565b60008060009054906101000a900473ffffffffffffffffffffffffffffffffffffffff169050816000806101000a81548173ffffffffffffffffffffffffffffffffffffffff021916908373ffffffffffffffffffffffffffffffffffffffff1602179055508173ffffffffffffffffffffffffffffffffffffffff168173ffffffffffffffffffffffffffffffffffffffff167f8be0079c531659141344cd1fd0a4f28419497f9722a3daafe3b4186f6b6457e060405160405180910390a35050565b61151c8061010d6000396000f3fe60806040526004361061009c5760003560e01c80639776aacf116100645780639776aacf146101685780639ead722214610191578063a8d2021a146101ce578063c311d049146101f7578063c9630cb014610220578063f2fde38b146102495761009c565b80631f14df69146100a1578063439370b1146100de578063667cb4ba146100e8578063715018a6146101265780638da5cb5b1461013d575b600080fd5b3480156100ad57600080fd5b506100c860048036038101906100c39190610eab565b610272565b6040516100d59190610f04565b60405180910390f35b6100e6610297565b005b3480156100f457600080fd5b5061010f600480360381019061010a9190610f1f565b610390565b60405161011d929190610f6a565b60405180910390f35b34801561013257600080fd5b5061013b6103d4565b005b34801561014957600080fd5b506101526103e8565b60405161015f9190610f93565b60405180910390f35b34801561017457600080fd5b5061018f600480360381019061018a9190610fae565b610411565b005b34801561019d57600080fd5b506101b860048036038101906101b3919061101a565b6104d8565b6040516101c59190611047565b60405180910390f35b3480156101da57600080fd5b506101f560048036038101906101f09190611062565b6104fc565b005b34801561020357600080fd5b5061021e6004803603810190610219919061101a565b6107a6565b005b34801561022c57600080fd5b5061024760048036038101906102429190611062565b610a00565b005b34801561025557600080fd5b50610270600480360381019061026b91906110a2565b610c19565b005b6003602052816000526040600020602052806000526040600020600091509150505481565b61031a34600360003373ffffffffffffffffffffffffffffffffffffffff1673ffffffffffffffffffffffffffffffffffffffff16815260200190815260200160002060007f4554480000000000000000000000000000000000000000000000000000000000815260200190815260200160002054610c9c90919063ffffffff16565b600360003373ffffffffffffffffffffffffffffffffffffffff1673ffffffffffffffffffffffffffffffffffffffff16815260200190815260200160002060007f4554480000000000000000000000000000000000000000000000000000000000815260200190815260200160002081905550565b60016020528060005260406000206000915090508060000154908060010160009054906101000a900473ffffffffffffffffffffffffffffffffffffffff16905082565b6103dc610cb2565b6103e66000610d30565b565b60008060009054906101000a900473ffffffffffffffffffffffffffffffffffffffff16905090565b610419610cb2565b60405180604001604052808381526020018273ffffffffffffffffffffffffffffffffffffffff16815250600160008481526020019081526020016000206000820151816000015560208201518160010160006101000a81548173ffffffffffffffffffffffffffffffffffffffff021916908373ffffffffffffffffffffffffffffffffffffffff16021790555090505060028290806001815401808255809150506001900390600052602060002001600090919091909150555050565b600281815481106104e857600080fd5b906000526020600020016000915090505481565b80600073ffffffffffffffffffffffffffffffffffffffff166001600083815260200190815260200160002060010160009054906101000a900473ffffffffffffffffffffffffffffffffffffffff1673ffffffffffffffffffffffffffffffffffffffff16036105a2576040517f08c379a00000000000000000000000000000000000000000000000000000000081526004016105999061112c565b60405180910390fd5b82600360003373ffffffffffffffffffffffffffffffffffffffff1673ffffffffffffffffffffffffffffffffffffffff1681526020019081526020016000206000848152602001908152602001600020541015610635576040517f08c379a000000000000000000000000000000000000000000000000000000000815260040161062c90611198565b60405180910390fd5b61069883600360003373ffffffffffffffffffffffffffffffffffffffff1673ffffffffffffffffffffffffffffffffffffffff168152602001908152602001600020600085815260200190815260200160002054610df490919063ffffffff16565b600360003373ffffffffffffffffffffffffffffffffffffffff1673ffffffffffffffffffffffffffffffffffffffff1681526020019081526020016000206000848152602001908152602001600020819055506001600083815260200190815260200160002060010160009054906101000a900473ffffffffffffffffffffffffffffffffffffffff1673ffffffffffffffffffffffffffffffffffffffff1663a9059cbb33856040518363ffffffff1660e01b815260040161075d9291906111b8565b6020604051808303816000875af115801561077c573d6000803e3d6000fd5b505050506040513d601f19601f820116820180604052508101906107a09190611219565b50505050565b80600360003373ffffffffffffffffffffffffffffffffffffffff1673ffffffffffffffffffffffffffffffffffffffff16815260200190815260200160002060007f45544800000000000000000000000000000000000000000000000000000000008152602001908152602001600020541015610859576040517f08c379a000000000000000000000000000000000000000000000000000000000815260040161085090611198565b60405180910390fd5b6108dc81600360003373ffffffffffffffffffffffffffffffffffffffff1673ffffffffffffffffffffffffffffffffffffffff16815260200190815260200160002060007f4554480000000000000000000000000000000000000000000000000000000000815260200190815260200160002054610df490919063ffffffff16565b600360003373ffffffffffffffffffffffffffffffffffffffff1673ffffffffffffffffffffffffffffffffffffffff16815260200190815260200160002060007f455448000000000000000000000000000000000000000000000000000000000081526020019081526020016000208190555060003373ffffffffffffffffffffffffffffffffffffffff168260405161097690611277565b60006040518083038185875af1925050503d80600081146109b3576040519150601f19603f3d011682016040523d82523d6000602084013e6109b8565b606091505b50509050806109fc576040517f08c379a00000000000000000000000000000000000000000000000000000000081526004016109f3906112d8565b60405180910390fd5b5050565b80600073ffffffffffffffffffffffffffffffffffffffff166001600083815260200190815260200160002060010160009054906101000a900473ffffffffffffffffffffffffffffffffffffffff1673ffffffffffffffffffffffffffffffffffffffff1603610aa6576040517f08c379a0000000000000000000000000000000000000000000000000000000008152600401610a9d9061112c565b60405180910390fd5b6001600083815260200190815260200160002060010160009054906101000a900473ffffffffffffffffffffffffffffffffffffffff1673ffffffffffffffffffffffffffffffffffffffff166323b872dd3330866040518463ffffffff1660e01b8152600401610b19939291906112f8565b6020604051808303816000875af1158015610b38573d6000803e3d6000fd5b505050506040513d601f19601f82011682018060405250810190610b5c9190611219565b50610bc083600360003373ffffffffffffffffffffffffffffffffffffffff1673ffffffffffffffffffffffffffffffffffffffff168152602001908152602001600020600085815260200190815260200160002054610c9c90919063ffffffff16565b600360003373ffffffffffffffffffffffffffffffffffffffff1673ffffffffffffffffffffffffffffffffffffffff168152602001908152602001600020600084815260200190815260200160002081905550505050565b610c21610cb2565b600073ffffffffffffffffffffffffffffffffffffffff168173ffffffffffffffffffffffffffffffffffffffff1603610c90576040517f08c379a0000000000000000000000000000000000000000000000000000000008152600401610c87906113a1565b60405180910390fd5b610c9981610d30565b50565b60008183610caa91906113f0565b905092915050565b610cba610e0a565b73ffffffffffffffffffffffffffffffffffffffff16610cd86103e8565b73ffffffffffffffffffffffffffffffffffffffff1614610d2e576040517f08c379a0000000000000000000000000000000000000000000000000000000008152600401610d2590611492565b60405180910390fd5b565b60008060009054906101000a900473ffffffffffffffffffffffffffffffffffffffff169050816000806101000a81548173ffffffffffffffffffffffffffffffffffffffff021916908373ffffffffffffffffffffffffffffffffffffffff1602179055508173ffffffffffffffffffffffffffffffffffffffff168173ffffffffffffffffffffffffffffffffffffffff167f8be0079c531659141344cd1fd0a4f28419497f9722a3daafe3b4186f6b6457e060405160405180910390a35050565b60008183610e0291906114b2565b905092915050565b600033905090565b600080fd5b600073ffffffffffffffffffffffffffffffffffffffff82169050919050565b6000610e4282610e17565b9050919050565b610e5281610e37565b8114610e5d57600080fd5b50565b600081359050610e6f81610e49565b92915050565b6000819050919050565b610e8881610e75565b8114610e9357600080fd5b50565b600081359050610ea581610e7f565b92915050565b60008060408385031215610ec257610ec1610e12565b5b6000610ed085828601610e60565b9250506020610ee185828601610e96565b9150509250929050565b6000819050919050565b610efe81610eeb565b82525050565b6000602082019050610f196000830184610ef5565b92915050565b600060208284031215610f3557610f34610e12565b5b6000610f4384828501610e96565b91505092915050565b610f5581610e75565b82525050565b610f6481610e37565b82525050565b6000604082019050610f7f6000830185610f4c565b610f8c6020830184610f5b565b9392505050565b6000602082019050610fa86000830184610f5b565b92915050565b60008060408385031215610fc557610fc4610e12565b5b6000610fd385828601610e96565b9250506020610fe485828601610e60565b9150509250929050565b610ff781610eeb565b811461100257600080fd5b50565b60008135905061101481610fee565b92915050565b6000602082840312156110305761102f610e12565b5b600061103e84828501611005565b91505092915050565b600060208201905061105c6000830184610f4c565b92915050565b6000806040838503121561107957611078610e12565b5b600061108785828601611005565b925050602061109885828601610e96565b9150509250929050565b6000602082840312156110b8576110b7610e12565b5b60006110c684828501610e60565b91505092915050565b600082825260208201905092915050565b7f746f6b656e20646f6573206e6f74206578697374000000000000000000000000600082015250565b60006111166014836110cf565b9150611121826110e0565b602082019050919050565b6000602082019050818103600083015261114581611109565b9050919050565b7f496e7375666669656e742062616c616e63650000000000000000000000000000600082015250565b60006111826012836110cf565b915061118d8261114c565b602082019050919050565b600060208201905081810360008301526111b181611175565b9050919050565b60006040820190506111cd6000830185610f5b565b6111da6020830184610ef5565b9392505050565b60008115159050919050565b6111f6816111e1565b811461120157600080fd5b50565b600081519050611213816111ed565b92915050565b60006020828403121561122f5761122e610e12565b5b600061123d84828501611204565b91505092915050565b600081905092915050565b50565b6000611261600083611246565b915061126c82611251565b600082019050919050565b600061128282611254565b9150819050919050565b7f43616c6c20646964206e6f74206d616b65207468726f75676821000000000000600082015250565b60006112c2601a836110cf565b91506112cd8261128c565b602082019050919050565b600060208201905081810360008301526112f1816112b5565b9050919050565b600060608201905061130d6000830186610f5b565b61131a6020830185610f5b565b6113276040830184610ef5565b949350505050565b7f4f776e61626c653a206e6577206f776e657220697320746865207a65726f206160008201527f6464726573730000000000000000000000000000000000000000000000000000602082015250565b600061138b6026836110cf565b91506113968261132f565b604082019050919050565b600060208201905081810360008301526113ba8161137e565b9050919050565b7f4e487b7100000000000000000000000000000000000000000000000000000000600052601160045260246000fd5b60006113fb82610eeb565b915061140683610eeb565b9250827fffffffffffffffffffffffffffffffffffffffffffffffffffffffffffffffff0382111561143b5761143a6113c1565b5b828201905092915050565b7f4f776e61626c653a2063616c6c6572206973206e6f7420746865206f776e6572600082015250565b600061147c6020836110cf565b915061148782611446565b602082019050919050565b600060208201905081810360008301526114ab8161146f565b9050919050565b60006114bd82610eeb565b91506114c883610eeb565b9250828210156114db576114da6113c1565b5b82820390509291505056fea264697066735822122008655b3af638bb32faa8b0d0a026c6d77074dd6daacb118a58c8a40812b759da64736f6c634300080f0033",
  "immutableReferences": {},
  "source": "// SPDX-License-Identifier: MIT\npragma solidity >=0.4.22 <0.9.0;\n\nimport \"../node_modules/@openzeppelin/contracts/token/ERC20/IERC20.sol\";\nimport \"../node_modules/@openzeppelin/contracts/access/Ownable.sol\";\nimport \"../node_modules/@openzeppelin/contracts/utils/math/SafeMath.sol\";\n\ncontract Wallet is Ownable {\n    using SafeMath for uint256;\n\n    struct Token {\n        bytes32 ticker;\n        address tokenAddress;\n    }\n\n    mapping(bytes32 => Token) public tokenMapping;\n    bytes32[] public tokenList;\n    mapping(address => mapping(bytes32 => uint256)) public balances;\n\n    function addToken(bytes32 ticker, address tokenAddress) external onlyOwner {\n        tokenMapping[ticker] = Token(ticker, tokenAddress);\n        tokenList.push(ticker);\n    }\n\n    function deposit(uint256 amount, bytes32 ticker)\n        external\n        tokenExist(ticker)\n    {\n        IERC20(tokenMapping[ticker].tokenAddress).transferFrom(\n            msg.sender,\n            address(this),\n            amount\n        );\n        balances[msg.sender][ticker] = balances[msg.sender][ticker].add(amount);\n    }\n\n    function withdraw(uint256 amount, bytes32 ticker)\n        external\n        tokenExist(ticker)\n    {\n        require(balances[msg.sender][ticker] >= amount, \"Insuffient balance\");\n        balances[msg.sender][ticker] = balances[msg.sender][ticker].sub(amount);\n        IERC20(tokenMapping[ticker].tokenAddress).transfer(msg.sender, amount);\n    }\n\n    function depositEth() external payable {\n        balances[msg.sender][bytes32(\"ETH\")] = balances[msg.sender][\n            bytes32(\"ETH\")\n        ].add(msg.value);\n    }\n\n    function withdrawEth(uint256 amount) external {\n        require(\n            balances[msg.sender][bytes32(\"ETH\")] >= amount,\n            \"Insuffient balance\"\n        );\n        balances[msg.sender][bytes32(\"ETH\")] = balances[msg.sender][\n            bytes32(\"ETH\")\n        ].sub(amount);\n        (bool success, ) = msg.sender.call{value: amount}(\"\");\n        require(success, \"Call did not make through!\");\n    }\n\n    modifier tokenExist(bytes32 ticker) {\n        require(\n            tokenMapping[ticker].tokenAddress != address(0),\n            \"token does not exist\"\n        );\n        _;\n    }\n}\n",
  "sourcePath": "/home/plamen/Documents/VSCode/Moralis/eth-201/DEX/contracts/wallet.sol",
  "compiler": {
    "name": "solc",
    "version": "0.8.15+commit.e14f2714.Emscripten.clang"
  },
  "schemaVersion": "3.4.8",
  "updatedAt": "2022-07-13T19:06:42.466Z",
  "devdoc": {
    "kind": "dev",
    "methods": {
      "owner()": {
        "details": "Returns the address of the current owner."
      },
      "renounceOwnership()": {
        "details": "Leaves the contract without owner. It will not be possible to call `onlyOwner` functions anymore. Can only be called by the current owner. NOTE: Renouncing ownership will leave the contract without an owner, thereby removing any functionality that is only available to the owner."
      },
      "transferOwnership(address)": {
        "details": "Transfers ownership of the contract to a new account (`newOwner`). Can only be called by the current owner."
      }
    },
    "version": 1
  },
  "userdoc": {
    "kind": "user",
    "methods": {},
    "version": 1
  }
}